:100000000C9462060C94A9060C94C4060C94A906E0
:100010000C94A9060C94A9060C94B7260C94A90676
:100020000C94A9060C94A9060C94A9060C94A90694
:100030000C94A9060C94A9060C946A260C94A906A3
:100040000C94A9060C94A9060C94A9060C94A90674
:100050000C94A9060C94A9060C94A9060C94A90664
:100060000C94A9060C94A906800E9A0EA50EE00E1B
:10007000F70E070F1F0F320F760F7B0FA60FB90F6A
:10008000CE0FD10F76167616AE16AE1641175D1747
:10009000341934196A174718561856189E229E228A
:1000A000B022B022A722B022B022B0229E229E22ED
:1000B000AC22B022B022AC2200DA0281FFD9F1DBFF
:1000C00020A4A62EAF00A0C000A1C800AED580A875
:1000D0001FD300408D142000B6B6B6B6B6B6B6B67D
:1000E000B6B6B6B6B6B6B695B596D5B6B680818272
:1000F000838485868788898A8B8C8D8E8F90919258
:100100009394A0A1A2A3A4A5A6A7A8A9AAABACADAD
:10011000AEAFB0B1B2B3B4C0C1C2C3C4C5C6C7C824
:10012000C9CACBCCCDCECFD0D1D2D3D40000AE0172
:100130000001009C01000002000200980100000381
:100140000001009D010000040002008201512A0507
:100150000001009E0100000600020084010000076B
:100160000002009A010000080001009F0100000940
:1001700000020086012C2A0A00020088012C2A0BAA
:100180000002008A012C2A0C0002008C012C2A0D8E
:100190000002008E012C2A0E00020090012C2A0F72
:1001A00000020092012C2A1000020094012C2A1156
:1001B00000020096012C2A12000200A00100001388
:1001C000000200A2010000FD377A585A000004E640
:1001D000D6B4460200210116000000742FE5A3E00A
:1001E000046001975D003D8889C65436C3174FE40B
:1001F000E2A41EBE23B1C76ABBF8D6B49690171D01
:100200002F519136D14970CA6B6ED791B88158C2BF
:100210006BEE9A34104F4A0DB65667A4905D197371
:10022000BDB7E2901CCD5AAEE9EE1C1CBAE0C4305A
:10023000F83F1941DFDAA27FA2A80E7C50F110032B
:100240001C5B3602C2D188501A9DAF78ACAC930EBD
:10025000AD053663E15B9A8164E30367E456EFED35
:10026000E6003916937FAA672FA93DDCF8CDA933A4
:10027000F78A4D8D9888475F44C2827C3238703B44
:10028000276303A427D44478AC4DB2C9FBCF82487E
:10029000A7D4C7C885119724F804DA512CF56C67E8
:1002A000D5944A8AE7DB4792F6D50E2DB2055C6BF2
:1002B0004C608D6747B5B7F94683E378B821281FAE
:1002C000B49F1EE914BBD69E000EC06C1518498859
:1002D0005FE638AF5E6EA4F1BC641CD68AE30A7296
:1002E000FF500D35F0B6D254430726D73DF3B3592E
:1002F000F09372261C4EB5B43EFA6B89A659E63FC0
:10030000565F9DA4BA66B0BD4D7185EFEB616F2855
:100310000AE1915A9CCD4888B9D4CA32B06A52D009
:10032000A330918B2C60F04FBA2A752B46DAE11579
:1003300013E748DEB638EE455BFCF8E1698D4B4DBE
:1003400091CB8F1525F415DBE5DB7A79EFDFEF3202
:100350001C659B347C077794A92E67AB35DC4BB1C9
:10036000F9CA1148AAE7CAC5A4B7E4E8BCB8162779
:10037000E0EED5D35F69DC3ED1ED804E0000007623
:100380005E38EC16DDF3140001B303E1080000331E
:10039000B87B78B1C467FB020000000004595A0022
:1003A000000000000000000000000000000000004D
:1003B000000000000000000000000000000000003D
:1003C0000000007E0F00D4FFFFFFC7000000780090
:1003D000000000000000002A2B28000000000000A0
:1003E0000000000000000000000029000000002CB8
:1003F0001E3420212224342627252E362D37382757
:100400001E1F202122232425263333362E37381F62
:100410000405060708090A0B0C0D0E0F1011121324
:100420001415161718191A1B1C1D2F3130232D35C2
:100430000405060708090A0B0C0D0E0F1011121304
:100440001415161718191A1B1C1D2F3130354CAAFC
:1004500000A9000100010001000100010001002BC2
:100460000014001A000800150017001C00015104B8
:10047000001600070009000A000B00E1003800E444
:10048000001B00060019000500E000E2000251E632
:10049000002C002C002C0000003400A800130012D7
:1004A000000C0018000000E3002A0028000F000ED6
:1004B000000D0000001D00E500370036001000119F
:1004C0000029001E001F002000210022002300013F
:1004D00000010035003100010001000100010001B0
:1004E000004F000100010001000100010001005166
:1004F0000050004A0001004D0000000100010027EB
:1005000000260025002400000001004C00340033C8
:100510000030002F0000000100520038002E002D96
:1005200000010001003A003B003C003D003E003F5E
:10053000003900010001000100010001000100017B
:1005400000010001000100010001000100010001A3
:100550000001000100010001000100000001000194
:100560000043004200410040000000010001000182
:100570000001000100010000000100010001000174
:100580000001000100010001000100010001000163
:100590000001000100010001000100010001000153
:1005A0000001000100010001000100010001000143
:1005B0000001000100010001000100010000000134
:1005C0000001000100010001000100000001000124
:1005D0000001000100010001000000010001000114
:1005E0000001000100010000AF05010902A1018521
:1005F000020901A100050919012905150025019528
:100600000575018102950175038103050109300912
:10061000311581257F9502750881060938158125D8
:100620007F950175088106050C0A38021581257F22
:10063000950175088106C0C005010980A1018503E7
:1006400019012AB700150126B70095017510810020
:10065000C0050C0901A101850419012AA002150198
:1006600026A002950175108100C00660FF0961A1F6
:10067000010962150026FF009520750881020963B3
:10068000150026FF00952075089102C00501090696
:10069000A101050719E029E7150025019508750155
:1006A00081029501750881030507190029FF1500CE
:1006B00026FF009506750881000508190129059592
:1006C0000575019102950175039103C01C03760025
:1006D000690061006C003A00660036003400630077
:1006E0003200620033006300000012034D00650019
:1006F000720063007500740069006F00000012034F
:100700004D00650063006800570069006C006400DC
:1007100000000403090409025B00030100A0FA09B8
:100720000400000103010100092101010001224030
:10073000000705810308000109040100020300000D
:10074000000921010100012222000705840308009D
:100750000107050403080001090402000103000069
:10076000000921010100012281000705830308001F
:10077000011201100100000008776D03170001014C
:100780000203010000000000003E5B4F5B3E003EA4
:100790006B4F6B3E001C3E7C3E1C00183C7E3C18A0
:1007A000001C577D571C001C5E7F5E1C0000183C1F
:1007B000180000FFE7C3E7FF00001824180000FF3F
:1007C000E7DBE7FF0030483A060E002629792926A4
:1007D00000407F05050700407F05253F005A3CE7A4
:1007E0003C5A007F3E1C1C0800081C1C3E7F001465
:1007F000227F2214005F5F005F5F0006097F017F98
:1008000000006689956A0060606060600094A2FFE5
:10081000A2940008047E04080010207E2010000826
:10082000082A1C0800081C2A0808001E10101010B6
:10083000000C1E0C1E0C0030383E383000060E3EF8
:100840000E060000000000000000005F0000000035
:100850000700070000147F147F1400242A7F2A1247
:100860000023130864620036495620500000080730
:10087000030000001C224100000041221C00002A4D
:100880001C7F1C2A0008083E080800008070300009
:100890000008080808080000006060000020100838
:1008A0000402003E5149453E0000427F4000007274
:1008B00049494946002141494D33001814127F101F
:1008C000002745454539003C4A494931004121113D
:1008D000090700364949493600464949291E0000A2
:1008E0000014000000004034000000000814224101
:1008F00000141414141400004122140800020159B9
:100900000906003E415D594E007C1211127C007FA9
:1009100049494936003E41414122007F4141413E23
:10092000007F49494941007F09090901003E4141D1
:100930005173007F0808087F0000417F41000020BC
:1009400040413F01007F08142241007F4040404069
:10095000007F021C027F007F0408107F003E41419F
:10096000413E007F09090906003E4151215E007F9A
:10097000091929460026494949320003017F01032C
:10098000003F4040403F001F2040201F003F4038B4
:10099000403F0063140814630003047804030061FB
:1009A00059494D4300007F41414100020408102095
:1009B00000004141417F0004020102040040404028
:1009C0004040000003070800002054547840007F96
:1009D0002844443800384444442800384444287E9D
:1009E0000038545454180000087E090200182424CA
:1009F0001C78007F080404780000447D400000203B
:100A000040403D00007F102844000000417F40002E
:100A1000007C04780478007C08040478003844449E
:100A20004438007C1824241800182424187C007CE6
:100A3000080404080048545454240004043F442487
:100A4000003C4040207C001C2040201C003C4030EA
:100A5000403C004428102844004C9090907C004476
:100A600064544C4400000836410000000077000048
:100A7000000041360800000201020402003C262367
:100A8000263C00000000000080C0E0F0F0300000D4
:100A9000C060F0F0F0300080C020F0F0F0200000E6
:100AA00000000080C0E0703018B8F8F000000000CE
:100AB00000DC7E3FBEF0F0E000000000000080C0DF
:100AC000E070101818F8F06000000000C060F0F846
:100AD000F83000000080E0F0F8F8300000000080FE
:100AE000E0F0FCFF3F0F0100000080C0E0F0F8786C
:100AF000000000000080C060309040203070E0C0F6
:100B00000000404040404040404040404000000025
:100B1000E0FEFFFEF8C00000000000E0FCFFFEF079
:100B2000000000000000000000013EE080700E01A7
:100B300000000000073CE080780700000000000093
:100B400000000000180C06C3F9FE3FC7711806C369
:100B5000F07C1FC7711806C3F8FE3F0F0180C0F07C
:100B6000F8FEDF47636030381E0F0781402018060B
:100B70000381F0FC7F1F0780C0E0F8FC3E0F0301FB
:100B80000000000003018060100806E3FCFF3F073F
:100B900001C0308CE3FF7F1F0380C030188CE3F965
:100BA000FF3F070180C030180CC3F1FC7F0F0380AA
:100BB000C0F0FCFE3F0701003EC18080E0FC3F8F9B
:100BC0004040C0F0FC7E4E0000000000000000F835
:100BD000FFFF1F071FFFFEF0C0F8FF7F0F077FFF1B
:100BE000FEFC04047880000000C0380C1C6080000B
:100BF0000000F00C04F41C80C0FCE6C3C1C1C3E6D5
:100C0000FCC0800000383F3F1F07030000383E3F14
:100C10001F0E030000307F7F3F190C0603010F1FDA
:100C20003F71606070301808040201000000003855
:100C30007E7F3F3B18040301000F1F31202020203E
:100C40001018080402010000001C3F7F7F311806C5
:100C500003183E3F3F1B0804020100001E3F3F3FB8
:100C600010080402010000183E3F3F190C06030162
:100C7000000F1F3160606030181C0F070301010076
:100C80000000183C3C1C00000000000000001F1F7A
:100C90001F0700000000031F1F0F010000000007D6
:100CA0001F1F1EF8000F70300EC138070E70831C16
:100CB000601E03C03E01003F7FFFFFF9C0C0F9FF87
:100CC000FF7F3F0011241FBECFEFD8E0DEBFCDBFB6
:100CD00004B603FE27C080919B0690919C06A091CC
:100CE0009D06B0919E068730904BA740B04BD1F443
:100CF00010929B0610929C0610929D0610929E06E2
:100D000014BE84B7877F84BF0FB6F894A8958091EE
:100D10006000886180936000109260000FBEE0E088
:100D2000F8E3099511E0A0E0B1E0E0EDF7E602C0DC
:100D300005900D92A038B107D9F726E0A0E8B1E000
:100D400001C01D92AB39B207E1F70E9405080C946F
:100D5000E6330C940000A82FB92F80E090E041E02A
:100D600050EA609530E009C02D91822797958795CC
:100D700010F084279527305EC8F36F5FA8F30895BD
:100D8000EADF8D939D930895CF93CFB7CF93DF93F1
:100D9000C3954B9BE9F74B9B10C04B9B0EC04B9BE5
:100DA0000CC04B9B0AC04B9B08C04B9B06C0C0911C
:100DB0004F06C395C0934F068EC06F93C0917606C1
:100DC000DD27C758D94F2F9365E54B9B03C02F9163
:100DD0006F91E1CF0F931F934F9320E040E15F931A
:100DE00009B10C7003FB27F93F9350E03BE039C099
:100DF0001C7040642F77012F5F5F1EC0406819B1DF
:100E00001C702F7752501FC0406409B12F770C70AF
:100E1000D1F15F5F00C023C0406219B12F771C7011
:100E200091F15F5F00C025C00C701027515012F483
:100E30005D5F0000115027952C3F19B1C8F61C705A
:100E40000127015027952C3FC8F64227499309B145
:100E50000C7010274F73115027952C3FA8F646951C
:100E6000469519B11C7079F00127015027952C3F48
:100E700098F66B5A60F3315009B1B0F600C012E039
:100E80001CBB00271CC03B503195C31BD04012E057
:100E90001CBB0881033C21F10B3411F12091740635
:100EA0001981110F1213EDCF4A81441F093679F1D0
:100EB0000D3211F0013E29F74F7009F0042F009315
:100EC00050063F915F914F911F910F912F916F911C
:100ED000CCB3C1FD5DCFDF91CF91CFBFCF9118953E
:100EE00020915006222369F310917706112309F00F
:100EF00049C034300AF448C0309377062093750611
:100F0000109176063BE0311B309376063DC0009190
:100F100077060130BCF50AE54F7049F430911F01A6
:100F200034FD33C000931F01C1E5D6E032C0433029
:100F300059F0443091F030915C0634FD26C00093A6
:100F40005C06CDE5D6E025C030918F0634FD1DC08E
:100F500000938F06C0E9D6E01CC03091680634FDCE
:100F600014C000936806C9E6D6E013C0052710E058
:100F700000C000000BB91AC0052710E0221F1DC0D9
:100F800010E021C04AE502C032ED432FC4E1D0E0B9
:100F900032E01AB11C605B9A0BB11AB95CE020E830
:100FA00065E320FF05270BB9279517951C3FF0F641
:100FB0006695B8F7B1F720FF05270BB92795179568
:100FC0001C3FD0F62795179517FF052700001C3FFB
:100FD0000BB9B0F629913A9519F7037F109178066D
:100FE000110FC651D0400BB911F01093740612E0E6
:100FF0001CBB08601AB1137F402F437F54E05A9501
:10100000F1F70BB91AB94BB95CCFCF93DF93CDB7DA
:10101000DEB76A970FB6F894DEBF0FBECDBF0E9451
:10102000AB269E8B8D8B90E080E80FB6F894809372
:101030006100909361000FBE83E596E29093810179
:10104000809380010E94D91AE4EAF1E080E090E008
:10105000918380830196359688309105C9F70E9467
:10106000BE2B80916900886080936900E99A8BE4C7
:1010700080935D0680939006809369068AE580934D
:101080005C0680938F0680936806539A80E08150B7
:1010900041F0A895AFE9BFE01197F1F700C000005B
:1010A000F6CF5398789482E084BD93E095BD9AEF93
:1010B00097BD80936E0008E211E0FFE2EF2EF1E0B1
:1010C000FF2EF80181918F010E94A41CE016F10609
:1010D000C1F70FE211E0E6E3EE2EE1E0FE2ED801CB
:1010E0008D918D010E94A41CE016F106C1F7EEEC73
:1010F000F1E085ED91E0ABE1B2E011921D928E1727
:101100009F07D9F780E090E00E9446338A3E9E4FC9
:1011100011F00E94412782E090E00E943E338093CC
:101120000F020E9430279093CD018093CC010E9442
:101130005121EFE3FCE93197F1F700C000000E9474
:10114000512180911B0280FF17C06FEF83E290E076
:101150000E944C336FEF84E290E00E944C336FEFBB
:1011600085E290E00E944C336FEF7FEF80E090E0EB
:101170000E946A330E94552683E090E00E943E332D
:10118000682F70E080E090E00E946E2983E290E09A
:101190000E943E338B3481F484E290E00E943E331F
:1011A0008D3951F485E290E00E943E3391E088371A
:1011B00009F090E0892F01C080E080FD02C00C940E
:1011C000AA1082E08093FA0180E8809344040E9490
:1011D00040326DE070E08BEC90E00E943F30892B54
:1011E00009F043C08091FA0163E070E081FD3AC0EC
:1011F00088EC90E00E943F30892BB9F56DE070E0FB
:1012000088EB90E00E943F30892B79F50E949F2661
:10121000DC01CB01805A9541AF4FBF4F8093FC0159
:101220009093FD01A093FE01B093FF01E7E4F4E089
:1012300080E092E0DF019C011D9221503040E1F7F7
:10124000F0934E06E0934D068FEF9FEF9093460488
:101250008093450481E08093010280930002109204
:10126000FB0103C085EC90E0C5CF24982C9A25980B
:101270002D9A83B1829581701D9B02C092E001C0BE
:1012800090E0892B8093D90180E091E09093D60182
:101290008093D5013FEF40E752E03150404050404D
:1012A000E1F700C00000CE0101962C0180914F06AD
:1012B000882389F010924F060E94AB269E8B8D8B5F
:1012C000809126028823B1F0109226020E94D62235
:1012D0000E94912A0FC08091260281110BC08D8936
:1012E0009E890E949026069728F081E0809326022E
:1012F0000E94E02680912602882389F081E0809375
:1013000026020E94E0260E945121EBE1F2E0819149
:101310008111CDC692E0E232F907C9F7C7CF0E942A
:10132000683080911804882309F4CFC280915C064C
:1013300084FFCBC20E945121E82E81110E949F267A
:10134000E0E1F2E0ABE1B2E000E010E0302F2D91FF
:1013500091919227A1F180E0FF24F3944F2D49232E
:1013600051F18B873C872F2181E009F480E08D8744
:101370000E94AB268160782F9F878E874B855C8586
:101380006D858F850E944C2DF801E05FFD4F8081B7
:10139000F826F0828091D901E82FEE0FEE0FE0934E
:1013A000D90183B1829581708F8B188E1D9B1EC0D1
:1013B00082E090E01DC08F5FFF0C873079F60F5FF1
:1013C0001F4F0730110509F0C1CF8FEF888B898B34
:1013D0001A8A0E94AB268160782F9C8B8B8B488960
:1013E00059896A898C890E944C2DD4CF80E090E085
:1013F000AF89B88D8A2B9B2B8E2B8093D9018F7050
:10140000E82FF0E0EA5CFE4F90818091D801890FCF
:101410008093D801843064F08091D7018F5F8093EE
:10142000D70160E080E00E940C20FF24F39401C00B
:10143000F12C8091D8018D3F5CF48091D7018150CF
:101440008093D70161E080E00E940C20FF24F39498
:101450008091D801082E000C990B64E070E00E9486
:10146000A8338093D801F1100E949F268091010239
:10147000882309F422C1E7E4F4E0F0934E06E093F8
:101480004D06E8EDF0E084918F01882339F00E9449
:10149000752F0F5F1F4FF8018491F7CF80910102E4
:1014A000882309F4E3C020914504309146042115B6
:1014B000310509F4DBC08091FB018111D7C0682E92
:1014C000712C22242394312C082E02C0220C331CB0
:1014D0000A94E2F7A90142215321452B11F48F5FB1
:1014E000EECF9091FA01930165E0220F331F6A95C8
:1014F000E1F790FD12C08295880F807680930C01F1
:10150000220F232F221F330B319520930F01815E71
:1015100080930D011092100112C045E03695279579
:101520004A95E1F7220F220F220F20930C0110920F
:101530000F01295F20930D0183E08093100124E6C1
:1015400030E047E050E06AE071E088E70E94CD3289
:10155000892B09F08BC08091FA0180FD23C0C30163
:1015600025E0880F991F2A95E1F7AC01495B5B4F95
:1015700004E610E020E230E060E488E70E94F43204
:10158000892B09F073C00E94982B2094309480918D
:101590004504909146042822392230924604209234
:1015A000450464C080E2EAEDF1E0DF011D928A9516
:1015B000E9F705E0660C771C0A95E1F7EAE4F1E04B
:1015C000FA8FE98F66E471E0A98DBA8D8D91BA8F9B
:1015D000A98FFB019191BF01A301490F511D495BE7
:1015E0005B4F90E086529E4FFC0117E0C12E9F0199
:1015F000281B390BAA24A39401C0AA0C2A95EAF748
:101600008A01B12CD801DD908D01DA202C2D2B1907
:101610002770922E022E000C330BBD2D01C0BB0F84
:101620009A94EAF79B2E319521953109277033273B
:1016300001C0D6942A95EAF79D28D0809D289082F3
:10164000B39428E0B212DECFCA9431963FEFC312B2
:10165000CECF498D5A8D4E54514009F0B5CF04E696
:1016600010E020E230E04AED51E086CF80910002A8
:10167000882319F10E949F260091FC011091FD0121
:101680002091FE013091FF01DC01CB01801B910B09
:10169000A20BB30B8F3F9F4FAF4FBF4770F48091AA
:1016A0000102882351F062E070E08DE291E00E9437
:1016B0003F30892B11F410920002E11001C0F110AB
:1016C0000E94982B86E0E8E0F2E0D20101900D92B2
:1016D0008A95E1F7E0900A02F0900B0200910C026B
:1016E00010910D0210920A0210920B0210920C023D
:1016F00010920D02E11003C0FF2009F45DC080913B
:101700000602909107020E949026AC01909105027A
:10171000992339F02091140130E02417350758F04F
:101720004BC020911301FAE02F9F90011124241740
:10173000350718F041C09F3F19F09F5F9093050255
:10174000EE2061F00E94ED1B1E1414F491E001C024
:101750009FEF899F802D112480930A02FF2061F062
:101760000E94ED1B1F1414F491E001C09FEF899FAC
:10177000802D112480930B0230910A023323E1F073
:1017800020910B022223C1F045EB3403C001112448
:10179000992319F090930A0203C081E080930A0212
:1017A00055EB2503C0011124992319F090930B02E6
:1017B00003C081E080930B02011103C0112309F4DF
:1017C0005DC080910302909104020E949026AC01BA
:1017D00090910202992339F02091120130E02417F0
:1017E000350758F04BC0209111018AE0289F9001E5
:1017F00011242417350718F041C09F3F19F09F5F4F
:1018000090930202002361F00E94B41B101614F49E
:1018100091E001C09FEF899F802D112480930C02DD
:10182000112361F00E94B41B111614F491E001C061
:101830009FEF899F802D112480930D0230910C021F
:101840003323E1F020910D022223C1F045EB340354
:10185000C0011124992319F090930C0203C081E078
:1018600080930C0255EB2503C0011124992319F034
:1018700090930D0203C081E080930D0280910A02D3
:1018800081110BC080910B02811107C080910C0265
:10189000811103C080910D0281110E942721EB82EA
:1018A000FC820D831E8386E0F201A8E0B2E0019085
:1018B0000D928A95E1F70E94912A90910E02891764
:1018C00021F00E94912A80930E020E94E5310E942D
:1018D000683080911804882309F4E8CC80918F0641
:1018E00084FFE4CC80910E04803209F0DFCC0091BB
:1018F000240210912502809120040115110569F040
:101900008E3F09F0CFC380912104833008F4EBC1EE
:101910008550833008F0C6C3E6C18B3009F4CEC1D0
:1019200038F5853009F48DC0D8F48230E9F138F407
:10193000813009F0B4C31092210489E0D4C283300D
:1019400009F46BC0843009F0AAC34091230460916C
:101950002204809121040E94AB1A90932404F7C3BF
:10196000873009F49CC308F09AC30E946F2C9AC375
:10197000803109F4DFC060F48D3009F474C008F4DC
:1019800070C08E3009F474C08F3009F4A0C087C3D2
:10199000823109F4D4C008F4D0C0833109F4FDC009
:1019A0008E3F09F4A0C17BC380912104823009F4E9
:1019B000C4C3833071F0813009F071C30E949F2647
:1019C000909322048093230470932404609325044D
:1019D00069C38091220290912302892B09F462C38A
:1019E00080911B028093220480911C028093230427
:1019F00080911D028093240480911E02809325040F
:101A000080911F02809326048091200280932704F6
:101A1000809121028093280445C380912104823063
:101A200009F03DC360912204709123048091240445
:101A3000909125040E94C23386E290E00E944C33CC
:101A400031C32091240430912504322723273227E3
:101A50004091230460912204809121040E94751A10
:101A600021C380E1C3C281E0809321048FE73BC2A0
:101A70000091210410912204102701271027C09003
:101A80002304D12C8DE1C816D10408F00BC3B0E2B9
:101A9000EB2EB4E0FB2EC8018F579D4F97012052CB
:101AA00034402C153D0508F0FDC20F37A1E01A07A0
:101AB00028F40E943E33F701848303C0D7011496B3
:101AC0001C920F5F1F4FBFEFEB1AFB0AE4CF809110
:101AD000220290912302892B09F4E4C2009121048F
:101AE00010912204102701271027E0902304F12CE5
:101AF000EDE1EE16F10408F0D5C2A0E2CA2EA4E092
:101B0000DA2EC8018F579D4F9601205234402E1572
:101B10003F0508F0C7C20F37F1E01F0728F4D601D0
:101B200014966C910E944C330F5F1F4FBFEFCB1A7E
:101B3000DB0AE7CF0E94432CB5C284E057C2009174
:101B4000210410912204102701271027C09023049C
:101B5000D12CEDE1CE16D10408F0A4C2F0E2EF2EB4
:101B6000F4E0FF2EC80187969701205234402C15CF
:101B70003D0508F097C20838F1E01F0730F40E94D5
:101B80003E33D70114968C9302C0F70114820F5F85
:101B90001F4FFFEFEF1AFF0AE5CF009121041091CC
:101BA0002204102701271027C0902304D12C2DE1F7
:101BB000C216D10408F076C2480137E2830E911CA8
:101BC000083841E0140708F06DC288E891E0801BF6
:101BD000910B8C159D0508F465C2809122029091AD
:101BE0002302892B29F0E0E2EE2EE4E0FE2E5DC018
:101BF00000FF11C0C80186960E943E3390E0982FE6
:101C0000882720912404822B81159C4539F48FEF7D
:101C10008093240403C0E12CF12C03C0EE24E39450
:101C2000F12CC8018C0D9D1D360180FF18C081E08C
:101C3000681A7108D301AC5DBB4F5D01C4018C0D06
:101C40009D1D0E943E33F501208130E0322F222776
:101C5000282B21153C4519F48FEFD5018C93F70102
:101C6000E05EFB4F2FEFCF01805294408615970521
:101C700008F0B9CF848190E0982F88273581832B95
:101C800081159C4511F4248325833296ECCF0838C6
:101C9000E1E01E0728F4D70114966C910E944C33A2
:101CA0000F5F1F4FBFEFEB1AFB0AC8018796970122
:101CB000205234402C153D0550F3F4C1809122028E
:101CC00090912302892B09F4EDC10E94BF31EFEFFF
:101CD000F1EE24E0E150F0402040E1F700C00000C8
:101CE0000E945526DFC1E09121048E2F90E08E30B6
:101CF000910508F0D7C1FC01EC5CFF4F0C94BC339C
:101D000088E0E0E2F1E0D20101900D928A95E1F7DE
:101D100080E2A0E2B4E01D928A95E9F784E0809326
:101D2000200488E0F201A4E2B4E001900D928A95CB
:101D3000E1F7B8C188ED8093200481E0809321040D
:101D40001092220410922304ADC18091230490E0EC
:101D5000982F882720912204820F911D092E000CB4
:101D6000AA0BBB0B35E0880F991FAA1FBB1F3A9522
:101D7000D1F7AC01BD01405E5F4F6F4F7F4F4817F9
:101D800059076A077B0708F48DC1883DE1E09E078B
:101D9000A105B10508F086C1493DF1E05F07610585
:101DA000710520F048ED51E060E070E0481B590BF0
:101DB000BC0169537E4F80E294E00E94253372C1DA
:101DC000109122040091230440E0602F812F0E9493
:101DD0004B1A909320048093210441E0602F812FBF
:101DE0000E944B1A90932204809323045BC120919C
:101DF00025043091260432272327322740912404DA
:101E000060912304809122040E94191A4BC140E280
:101E100050E06FEF70E080E294E00E94DF33809149
:101E20002202809320040093210481E08093220405
:101E30001092230485E08093240483E088C121E08C
:101E400030E0309325022093240242E350E0509387
:101E50001A02409319020E94AB26909318028093B5
:101E6000170220C1012BA9F11091200213FB882732
:101E700080F910911C02182380911702909118028A
:101E80000E94902685369105F0F01123E1F00E9422
:101E9000AB269093180280931702809119029091BB
:101EA0001A02019790931A0280931902892B89F4E0
:101EB000109225021092240281E090E09093230278
:101EC0008093220206C0A2E3B0E0B0931A02A0936E
:101ED0001902809122028093200480912402809331
:101EE00021048091190280932204DCC01092230205
:101EF00010922202D7C0009122041091230440E2E4
:101F000050E06FEF70E080E294E00E94DF332FE258
:101F100031E080E090E0AC014E5F5F4F413251050F
:101F200008F0C0C0F901659174910617170730F4E5
:101F3000FC01E05EFB4F71836083CA01285F3F4F65
:101F4000E7ECF1E0E217F30731F7ACC0209122048F
:101F5000309123048FE291E0FC01459154914217A6
:101F6000530709F4BEC00896F1E0873C9F07A1F72C
:101F700096C080912204909123040FE211E0F801B1
:101F8000259134918217930709F480C0085F1F4F91
:101F900027EC31E02017310791F781C00E94022C15
:101FA00081C080912204823021F188F48823A9F035
:101FB000813009F077C0809123041AE0F201212FCB
:101FC00011922A95E9F7B2010E94372D3CC0833067
:101FD00079F1843009F441C065C080E2A0E2B4E048
:101FE0001D928A95E9F788E080932004809321046C
:101FF00059C0609123048AE0E4E2F4E0D201019048
:102000000D928A95E1F7683068F43AE0639FB00179
:1020100011246F517E4F4AE050E0C2010E9470339C
:1020200080E001C08FEF809320040E94D91A3AC04B
:10203000809123041AE0D201E12F1D92EA95E9F77D
:10204000B2010E94222D80932004F201A1E2B4E0AB
:1020500001900D921A95E1F725C0609123048AE062
:10206000E4E2F4E0D20101900D928A95E1F7683044
:10207000B0F4FAE06F9FB00111246F5C7D4F4AE02D
:1020800050E0C2010E94703380E00AC0C80102968D
:10209000FC01259134912D31310508F437C08FEFC3
:1020A000809320040E94BF3110920E04FFC8F89460
:1020B0002AB15B9A822F8C608AB99BB18CE09827F9
:1020C0009BB93FE748E351E0315040405040E1F7D1
:1020D00000C000009BB189278BB92AB95B9878941E
:1020E000E5C89C012E5F3F4FF90145915491403264
:1020F0005105A8F6F90145915491FC01349665917A
:10210000749181E294E00E94D633BECFFC014591E8
:102110005491F80134968591949164E274E00E94A0
:10212000D6330E94E52BF80136968591949100975D
:1021300009F4AACFFC010995A7CF86E290E00E949E
:102140003E331092220410922304109224048093B0
:102150002504A8CF60E086E290E00E944C330E9404
:102160006F2C0E94432C6BE483E290E00E944C337E
:102170006DE984E290E00E944C3368E785E290E0EC
:102180000E944C330C94E1082F923F924F925F9241
:102190006F927F928F929F92AF92BF92CF92DF9277
:1021A000EF92FF920F931F93CF93DF93CDB7DEB7DC
:1021B00064970FB6F894DEBF0FBECDBF7C01DC0183
:1021C00013964D915C91149711966C9111978C9187
:1021D0000E94982981110C94901921E0F701408107
:1021E00051816281738184810E94FD1E8C01D7011F
:1021F00012968C91811105C0F7014281411140C0B6
:10220000C0C0809115018F3FB9F3B9E2CB2EB2E087
:10221000DB2EA12CB12C9924939480911501082ECA
:10222000000C990B8A159B053CF3D60116968C91F0
:1022300016978823F1F019968D919C911A9708179B
:10224000190739F48091270290912802081719077D
:1022500081F0F6019786148703878189811103C075
:10226000C6010E94FE2AC60106960E941F2B1092EC
:102270007403FFEFAF1ABF0A26E1C20ED11CCDCF07
:10228000C80182519F45409708F094C08FEF93E0BA
:102290000E943E3381117FC0AEEEDA2ED00E01E8EF
:1022A00012E0DD2071F0011544E0140709F473C059
:1022B000C8010E943E33811101C0DA940F5F1F4FA5
:1022C000F0CF19821A821B821C82AA24AA94680168
:1022D0005FEFC51AD50AC8010E943E3389831A826E
:1022E000882309F458C0813009F046C0480182E0D3
:1022F000880E911CC6010E943E338A83882309F40C
:102300004AC09FEF980F933060F4680193E0C90EC4
:10231000D11CC4010E943E338B8381112DC08601E4
:10232000D6CF843011F06401FACFC4010E943E334D
:10233000B82E6801A4E0CA0ED11CC80103960E9401
:102340003E33BB2041F1882331F1282F30E021506A
:102350003109A29EA001A39E500D11248B2D90E067
:102360000197840F951F0197D0F2EFE9FFE03197B5
:10237000F1F700C00000F7CFCE0101960E944A1E7F
:10238000CECF0031FFE51F0709F02EC481E00E9487
:10239000F5280E94213080917103877009F4C0C72D
:1023A000D70112968C91882309F4BAC782E00E9463
:1023B0001A29B6C70031BFE51B0711F481E005C03B
:1023C0000131EFE51E0721F482E00E943729E1CFB9
:1023D000C80197558F3F910511F008F057C0209123
:1023E0001501022E000C330B2817390714F48093C3
:1023F000150126E1289F5001299FB00C1124C50129
:10240000875D9D4F6C01DC0150964C935097F7010E
:10241000928116968C911697992369F11A961C93BE
:102420000E9319978F5F16968C930E94AB26D60158
:102430001E969C938E931D978091770317968C938D
:1024400017979091740380917303892B18968C933E
:102450001897ED91FC911197C501815D9D4F3097C3
:1024600029F054966D917C91559709951093280207
:10247000009327020BC08823B1F0F60181898823DD
:1024800091F0C501815D9D4F0E941F2B073FFCE528
:102490001F0749F4D70112968C91882321F181E01E
:1024A000809316013DC1083FBCE51B0771F4F7019D
:1024B00082818823C1F0109216011092E9021092D5
:1024C000E80281E00E94782B2BC1093FFCE51F0741
:1024D00051F4D70112968C91882329F0809116012E
:1024E0008823E9F2E8CF40901601442009F418C18E
:1024F0001092EC021092EB02612CE5E05E2E882433
:102500008394912C33243394A090EB02B090EC028E
:10251000F8E0AF16B10408F0CFC05A9CF0015B9C04
:10252000F00D1124EC55FE4FBE01655F7F4F808199
:102530000E94222D892B11F0712CB3C0FE013B9615
:1025400080E090E022242A94282F41915191411556
:10255000510551F00417150709F4282E019684300F
:10256000910591F724E002C0823030F3BFEF2B16C3
:1025700019F3F7017280772009F448C05A9CC00112
:102580005B9C900D1124AC014C555E4F6A01C40157
:1025900001C0880F2A94EAF7DA0114969C911497E7
:1025A000892B14968C93F40102C0EE0FFF1F2A951D
:1025B000E2F79F012150310990E08F772817390702
:1025C00009F06EC080E00E94782BD60114968C91A1
:1025D0001497806814968C93149712968D919C9101
:1025E0001397009719F00E943C1F0DC0BE016F5F4A
:1025F0007F4F8091EB020E94222D892B21F4898547
:102600009A850E94DB1F3092EA024BC0F40102C09F
:10261000EE0FFF1F2A95E2F79F01215031095A9CC6
:10262000F0015B9CF00D1124EC55FE4F848190E08D
:102630008F7728173907A1F482819381009719F0C9
:102640000E94261F0DC0BE016F5F7F4F8091EB027D
:102650000E94222D892B21F489859A850E94521F80
:102660005A9CF0015B9CF00D1124EC55FE4F9481B7
:10267000292F30E0022C02C0359527950A94E2F705
:1026800020FF5ACF940101C0220F2A94EAF7822F2B
:1026900080958923848387FF4FCF803809F4148283
:1026A000742C67288091EB029091EC020196909334
:1026B000EC028093EB0228CF8091EA02882359F044
:1026C0000E94AB269093E9028093E8021092EA02FE
:1026D000611061CE25C0611006C081E00E94782B98
:1026E0000E94662B1DC0D70112968C91882309F495
:1026F00052CE0E94AB269093E9028093E802E091CB
:10270000E702E73008F047CE81E08E0F8093E702C2
:10271000F0E0EE0FFF1FE752FD4F118300833BCE29
:1027200080919D0180FF64C00E94AB266C01F7017F
:102730008281882379F18091170182FF06C040E0F1
:10274000B60180E090E00E949D2A82E00E94B727B7
:102750000B31FCE51F0779F00C312CE5120789F0ED
:102760000A314CE51407B1F480911701982F909528
:1027700090FB80F909C08091170181608093170157
:102780007EC0809117018E7F8093170182E00E94A6
:10279000B72775C00832110538F40E311105B0F4B1
:1027A0000430110578F424C00933110538F40D32D2
:1027B000110588F40B32110571F01AC004361105A9
:1027C00051F016C080919D0184FF09C080919D0148
:1027D00083FD0EC004C080919D0182FD09C0F701F8
:1027E0008281882309F4B5C18091170180FD75C1EC
:1027F000033FBCE51B0741F190F4083DFCE51F07D2
:10280000E9F0093D2CE5120789F1073D4CE5140775
:10281000B1F506E221EE41EE67ED7CE52CC0053F07
:102820005CE51507E9F0B0F0063F9CE5190739F5BE
:1028300007E225EE46EE66EF7CE51DC007E225EED9
:1028400045EE68ED7CE517C006E221EE40EE63EF51
:102850007CE511C007E225EE44EE64EF7CE50BC099
:1028600006E221EE42EE65EF7CE505C008E221E0DC
:1028700045EE69ED7CE5C7010E94282E8CCDD7017D
:1028800012962C91222309F46AC11092F1020230AF
:10289000BCE51B0708F463C10631ECE51E0730F008
:1028A000C8018A5F9C45099708F059C10E943027EA
:1028B0009093CD018093CC010031FCE51F0709F412
:1028C000C3C008F041C008304CE5140709F49AC0B1
:1028D000F0F404308CE5180709F487C068F402307E
:1028E000ACE51A0709F477C003301C4509F0E5C0D0
:1028F0008091CC01826076C00630ECE51E0709F4B9
:102900006EC008F07BC08091CC0188606BC00C3039
:102910002CE5120709F485C068F40A305CE5150758
:1029200009F474C008F079C00E94D6228091CC01CD
:10293000806858C00E309CE5190709F476C008F08D
:102940007FC08091CC018BC00B3FBCE51B0709F415
:102950004FC018F50331FCE51F0709F47DC078F47A
:1029600001314CE5140709F473C002311C4509F02C
:10297000A4C00E94D6228091CC018F7733C005314C
:102980008CE5180709F472C008F486C00A3F1C459C
:1029900009F093C08091CD013EC00F3FBCE51B07FD
:1029A00009F45FC058F40D3FFCE51F0709F444C06B
:1029B00008F43FC08091CD0182602DC001304DE50B
:1029C000140709F475C008F45DC002301D4509F014
:1029D00074C060E06EC08091CC01816003C08091C2
:1029E000CC0180618093CC0168C08091CC0111C082
:1029F0008091CD0182608093CD015FC08091CC0138
:102A00008062F0CF8091CC018064ECCF8091CC01CA
:102A100088608460E7CF8160EECF8091CC018E7FAB
:102A2000E1CF8091CC018D7FDDCF8091CC01877F7C
:102A3000D9CF8091CD0118C08091CD018D7FDBCFA2
:102A40008091CC018F7ECECF8091CC018F7DCACF7B
:102A50008091CC018F7BC6CF8091CC01877F8B7F0B
:102A6000C1CF8091CD018D7F8E7FC5CF8091CC016C
:102A700082FB222720F991E0922790FB82F990FBBC
:102A800083F9B0CF8091CD01982F909591708E7F72
:102A9000892B90FB81F9AFCF0E94D6228091CC0187
:102AA00087FB222720F991E0922790FB87F99ACFA4
:102AB00061E08EE090E00E944C336091CC01109177
:102AC000CD0184E090E00E944C33612F82E290E0DF
:102AD0000E944C330E94D6225ECC90919D0191FDC4
:102AE00004C020917303211183CE95FF21C0209152
:102AF000EF023091F002D601A21BB30B9D0196FDAF
:102B000002C081FD15C0283C310590F42091ED02F2
:102B10003091EE020217130759F481FF05C080912E
:102B20007403826080937403802F0E94412333CC0E
:102B30001093EE020093ED02D092F002C092EF02E9
:102B40008091170184608093170182E00E941A2906
:102B500022CC40E0B601C8010E949D2A1CCC06315F
:102B6000FCE51F0709F047C080917303982F9A7AFC
:102B700030919C0130FF04C0482F447409F090E06C
:102B800031FF04C0482F417109F090E032FF04C0CA
:102B9000482F487809F090E033FF02C0827261F458
:102BA0002223A1F081E0911101C080E08093F20224
:102BB000992331F065E305C0222341F01092F2021F
:102BC00069E28BE093E00E9416270BC08091F2022D
:102BD000882311F065E301C069E28BE093E00E9475
:102BE00009270E940028D7CB01312FE5120709F0F1
:102BF000EFCB82E0CCCB222389F10A359DE5190782
:102C000041F150F40115BCE51B07A9F00E3D1C4530
:102C100029F50E944127BFCB0B35FDE51F07D9F0F1
:102C20000C351D45D9F48091CD0182FB882780F9B0
:102C300091E0892711C00E94D6224FEF54E38CE027
:102C4000415050408040E1F700C000000E945526EE
:102C5000A2CB81E001C080E00E94C527D701129677
:102C60008C9112970D911C91882349F0C8010E9404
:102C70004128D82E682FC8010E94BE2804C0C80170
:102C80000E948E28D82EB8018D2D0E94BB1C8C016D
:102C9000882EF701B280C580C2946FE0C622809171
:102CA0007103877099F0BB2089F0812F807F803479
:102CB00021F080E2800F883048F082E00E941A29DB
:102CC000809171038770AA24A3948111A12C912E65
:102CD00092945FE09522892D90E08C30910508F068
:102CE000C3C2FC01EE5BFF4F0C94BC33912F9F706D
:102CF000812F807FD92E19F0D29440EFD422BB20AF
:102D0000B9F0DD2009F48EC280E2800F883010F027
:102D1000811006C080917303D82AD092730305C036
:102D200080917403D82AD09274030E9400287AC23A
:102D3000802F0E94E122DD2009F496C280E2800FFC
:102D4000883010F0811004C08D2D0E94BE2703C072
:102D50008D2D0E94B7270E94002886C2912F9F7058
:102D6000812F807FD92E803219F0D29430EFD32278
:102D7000882029F0F1E08F1609F44FC05CC0BB2019
:102D800079F1CC2039F144244394C41013C08091CC
:102D9000CD0182FD69C280917703D82AD81609F443
:102DA00063C20E94AB269093760380937503D09202
:102DB00077035AC280919E01823060F0C8120AC027
:102DC0000E94AC2780916E03D81609F452C0D092AD
:102DD0006E034FC0809177038D290E94782244C2F0
:102DE000CC2081F080919E0155245394C51010C0D1
:102DF000823008F439C2809173038D2109F434C202
:102E00000E943B280E94AC278D2D0E9489222CC253
:102E10008230C0F3C812F6CF27C2BB2031F025E0C4
:102E2000622E6C1408F420C224C094E0792E7C1425
:102E300008F41AC2E9CFBB20F1F0CC20D1F020E099
:102E4000D7014C9111965C91119712966C91129743
:102E500013967C91139714968C910E94FD1E80917D
:102E60009F0181FDDFC1F701858180FFDBC18F708C
:102E700085838D2DB2CFCC2039F2F9E38F12E4C1D6
:102E8000DEC1812F86958695837019F0813059F0C7
:102E9000EBC1BB2019F0C801937002C080E090E044
:102EA0000E947B2AE1C1BB2019F0C801937002C0C7
:102EB00080E090E00E94652AD7C1802FBB2029F0D6
:102EC0000E943C1C0E94272102C00E942F1B0E94CE
:102ED0002721CAC1812F837009F06AC0B110C4C113
:102EE000902F929596959770990F990F802F8F70CC
:102EF000482E512C612C712C092E04C0440C551CF9
:102F0000661C771C0A94D2F704FF12C04FE050E011
:102F100060E070E004C0440F551F661F771F9A954C
:102F2000D2F7DB01CA0180959095A095B09503C0BA
:102F300080E090E0DC01612F6695669563706230F9
:102F4000D9F068F5209178033091790340917A03A4
:102F500050917B03613059F084299529A629B7291E
:102F6000BC01CD0162237323842395231EC0422A12
:102F7000532A642A752A13C084299529A629B729BA
:102F8000409078035090790360907A0370907B03AF
:102F9000BC01CD01642575258625972506C0BC0199
:102FA000CD0164297529862997290E946E295CC163
:102FB000BB2019F0812F817001C08695882309F408
:102FC00053C1902F929596959770990F990F802FD6
:102FD0008F70482E512C612C712C092E04C0440C8A
:102FE000551C661C771C0A94D2F704FF12C04FE0F0
:102FF00050E060E070E004C0440F551F661F771F6B
:103000009A95D2F7DB01CA0180959095A095B0956D
:1030100003C080E090E0DC01612F669566956370E7
:103020006230D9F068F5209140043091410440911C
:10303000420450914304613059F084299529A6290E
:10304000B729BC01CD01622373238423952391C04A
:10305000422A532A642A752A13C084299529A6294D
:10306000B729409040045090410460904204709011
:103070004304BC01CD01642575258625972579C0BB
:10308000BC01CD01642975298629972972C0212F99
:103090002F70D22EBB2029F0822F0E943729802F3B
:1030A0009CCE802F0E9489228D2DDAC0802F42EF86
:1030B000841609F443C0481538F050EF851661F0C6
:1030C00091EF8916A9F1AAC0A3EF8A16E9F1B4EF2E
:1030D0008B1609F451C0A2C0BB2029F0E4E0EC1526
:1030E00008F4C2C005C085E0582E5C1408F4BCC0CA
:1030F000212F2F7181E090E0A0E0B0E0AC01BD0194
:1031000004C0440F551F661F771F2A95D2F7809180
:10311000400490914104A0914204B09143042A01DB
:103120003B01482659266A267B26C301B20121C0ED
:10313000812F8F71BB2009F493C07AC0812F8F71CA
:10314000BB2009F475C08CC0BB2081F0212F2F71EA
:1031500081E090E0A0E0B0E0BC01CD0104C0660FCA
:10316000771F881F991F2A95D2F703C060E070E08F
:10317000CB010E94EB2878C090919E019230B8F16B
:10318000BB20F1F080916E030E94BE2780917103F5
:103190008770843039F40E94DF27812F8F710E945D
:1031A000F52861C080919E01C81608F05CC0212FEF
:1031B0002F71D22E822F0E94372963E08D2D10C0EF
:1031C0002091730380916E03822B80937303C91641
:1031D00050F00E94DF270E943B2864E0812F8F710E
:1031E0000E94582940C081E00E941A293CC0BB209F
:1031F00059F0412F4F71D42E842F0E94372963E05C
:103200008D2D0E94582930C081E00E941A2951E07A
:103210005C1550F582E00E941A2926C0BB2059F0A7
:10322000CC2021F0802F0E9441231EC0812F8F715E
:103230000E94372919C0CC2089F0893329F4809164
:10324000A2019091A30104C08091A0019091A101DD
:103250000E945A2A802F0E94E12206C0812F8F717E
:103260000E94F52801C0A12C88EF890D843010F44C
:103270000E94912AC8010E949022811105C01092DB
:10328000F4021092F30225C0BB2019F0C110F7CF51
:1032900020C0C110F4CF20E0D7014C9111965C9171
:1032A000119712966C91129713967C91139714961E
:1032B0008C910E94FD1E80919F0183FFE0CF809141
:1032C000F3029091F4020297D1F6802F0E94E52339
:1032D000D6CFAA20A9F08091710380FD11C0F7011B
:1032E00012828595859585950E943729C7010E9490
:1032F000C410809171038595859585950E94F52868
:1033000020E0D7014C9111965C91119712966C9127
:10331000129713967C91139714968C910E94FD1E20
:1033200064960FB6F894DEBF0FBECDBFDF91CF918C
:103330001F910F91FF90EF90DF90CF90BF90AF90D3
:103340009F908F907F906F905F904F903F902F90C5
:1033500008959091CC0192FF0DC0282F287128303C
:1033600019F4877F846006C0282F2471243011F45B
:103370008B7F886093FF0DC0282F2871283119F4A6
:10338000877E846106C0282F2471243111F48B7E3E
:1033900088612091CD0120FF0DC0382F3871383061
:1033A00019F4877F816006C0382F3171313011F4F4
:1033B0008E7F886021FF0DC0282F2871283119F4D5
:1033C000877E816106C0282F2171213111F48E7E04
:1033D000886194FD877E08959C013A9521153F41AF
:1033E00038F5DC01AA27B270AC01442754709C0167
:1033F0002227387094FF0FC090FF02C080E101C007
:1034000080E0AB2B09F08062452B09F08064232B10
:1034100069F080680BC0892F8170AB2B09F0826046
:10342000452B09F08460232B09F08860FB01099487
:1034300008950F931F93CF93DF93843038F5611174
:1034400025C0423018F521159CE5390731F460910B
:10345000220270912302672BC9F08901C42FD0E0AA
:10346000CC0FDD1F94E0899FC00DD11D1124C155E3
:10347000DE4F612FCE010E944C33602FCE010196AA
:10348000DF91CF911F910F910C944C33DF91CF912D
:103490001F910F9108950F931F93CF93DF93843063
:1034A000E8F461111BC04230C8F4C42FD0E0CC0F47
:1034B000DD1F24E0829FC00DD11D1124C155DE4FB8
:1034C000CE010E943E3390E0182F0027CE010196D6
:1034D0000E943E339801282BC90102C080E090E091
:1034E000DF91CF911F910F9108950F931F93CF9369
:1034F000DF93843058F5673048F5473038F52115AB
:103500009CE5390731F4E0912202F0912302EF2B80
:10351000E9F08901C42FD0E0CC0FDD1F9EE0699F48
:10352000C00DD11D112492E6899FC00DD11D11241B
:10353000612FCE0187960E944C33602FCE01889672
:10354000DF91CF911F910F910C944C33DF91CF916C
:103550001F910F9108950F931F93CF93DF938430A2
:1035600008F56730F8F44730E8F4C42FD0E0CC0F0A
:10357000DD1F2EE0629FC00DD11D112432E6839F16
:10358000C00DD11D1124CE0187960E943E3390E0DC
:10359000182F0027CE0188960E943E339801282BD1
:1035A000C90102C080E090E0DF91CF911F910F919F
:1035B00008958F929F92AF92BF92CF92DF92EF9237
:1035C000FF920F931F93CF93DF93CDB7DEB72A9768
:1035D0000FB6F894DEBF0FBECDBF09E212E0E12CBA
:1035E000F12C8CE7C82E80E2D82E97EAA92E90E223
:1035F000B92E22E8822E2FE1922EF801D182C082CC
:10360000B382A28295828482F58AE48ABE016F5FCA
:103610007F4F8E2D0E94372D892B29F489859A851D
:10362000F801938B828BFFEFEF1AFF0A0A5E1F4FA0
:1036300088E0E816F10409F72A960FB6F894DEBF81
:103640000FBECDBFDF91CF911F910F91FF90EF90F3
:10365000DF90CF90BF90AF909F908F900895803F64
:1036600039F480910B0287FF6AC010920B0267C089
:10367000813F29F480910B021816BCF360C0909131
:103680000A02823F29F497FF5AC010920A0257C0DB
:10369000833F19F41916CCF352C090910C02893F64
:1036A00031F419160CF04BC010920C0248C08A3F3E
:1036B00019F497FF44C0F8CF8B3F39F480910D0285
:1036C00087FF3DC010920D023AC08C3F29F48091D3
:1036D0000D021816BCF333C0843F21F48091090217
:1036E0008E7F17C0853F21F4809109028D7F11C024
:1036F000863F21F4809109028B7F0BC0873F21F424
:1037000080910902877F05C0883F31F480910902CA
:103710008F7E8093090213C08D3F21F480910A03AC
:103720008E7F0BC08E3F21F480910A038D7F05C0F0
:103730008F3F29F480910A038B7F80930A03809145
:103740000A02811106C080910B02811102C0109201
:10375000050280910C02811106C080910D02811139
:1037600002C010920202089580910A0380FF08C0EF
:103770006091190170E0759567957595679521C001
:1037800081FF06C06091190170E07595679519C0B9
:1037900082FF04C06091190170E010C09091020294
:1037A000992399F0609118019617A0F7809119015B
:1037B000899FC001112470E00E94A8336038710510
:1037C00040F46115710519F406C061E070E0862FC0
:1037D00008958FE7089581E0089580910A0320916C
:1037E0008A0130918B0180FF0CC080911B01829F68
:1037F000B001839F700D1124769567957695679536
:103800002FC081FF0AC080911B01829FB001839F5E
:10381000700D11247695679523C082FF08C08091B2
:103820001B01829FB001839F700D112419C040912C
:103830000502411102C0B90113C060911A01461777
:1038400070F780911B01849FA0011124429FC00149
:10385000439F900D529F900D112470E00E9494336D
:103860006038710528F46115710521F0862F0895DF
:103870008FE7089581E00895803F21F40E94ED1BB9
:10388000819504C0813F29F40E94ED1B80930B02B7
:103890000895823F21F40E94ED1B819504C0833F6F
:1038A00029F40E94ED1B80930A020895893F19F4C0
:1038B0000E94B41B05C08A3F31F40E94B41B81955D
:1038C00080930C0208958B3F21F40E94B41B8195D4
:1038D00004C08C3F29F40E94B41B80930D0208950C
:1038E000843F21F480910902816017C0853F21F453
:1038F00080910902826011C0863F21F48091090203
:1039000084600BC0873F21F480910902886005C064
:10391000883F31F480910902806180930902089503
:103920008D3F21F480910A0381600BC08E3F21F40A
:1039300080910A03826005C08F3F29F480910A03B9
:10394000846080930A030895F894E82FE295EF705D
:10395000F0E031A1282F2F7081E090E001C0880FA6
:103960002A95EAF7982F9095932391A392A1892BFA
:1039700082A378940895CF93DF930E94532CEC0197
:103980008238910559F1A0F48133910509F473C08F
:1039900040F48932910509F467C08A9709F472C02E
:1039A00084C08533910509F458C0C997B9F07DC02A
:1039B000833E910571F138F4803E9105B1F0823E6D
:1039C000910511F172C0863E9105B9F1873E9105CE
:1039D000C9F1843E910509F068C024C08091CC01F2
:1039E00080FD5DC081FD5BC060C08091CC0180FD29
:1039F00050C08091CD0180FF49C18091CC0184FDF0
:103A000043C1C3EED0E042C18091CC0182FF3EC1F0
:103A1000F4CF8091CC0182FD3FC08091CD0180FD2B
:103A20003EC0EBCF8091CD0181FF30C18091CC01B0
:103A300084FD2AC1C7EED0E029C18091CC0183FF6B
:103A400025C1F4CF8091CC0183FD2CC08091CD01A4
:103A500081FFECCFC4EED0E019C18091CC0185FF8D
:103A600015C1C9E2D0E012C18091CC0185FF0EC121
:103A7000C5E3D0E00BC18091CC0186FF07C1CAE24B
:103A8000D0E004C18091CC0186FF00C1C1E3D0E049
:103A9000FDC0C9E3D0E0FAC0C2EED0E0F7C0C0EE8E
:103AA000D0E0F4C0C6EED0E0F1C0C11581E5D80782
:103AB00008F066C0C11520E5D207E0F0CE0174E041
:103AC000969587957A95E1F783709C2F937021E006
:103AD00030E002C0220F331F9A95E2F73C68382B82
:103AE000CF70C695C69540E2C49FE0011124C22B59
:103AF000D32BCCC0C83ED10560F5C03ED10508F03F
:103B0000C5C0C83AD105B0F4C53AD10540F0C55A90
:103B1000D0E0C25BDE4FC881D0E0D064B7C0C13016
:103B2000D10509F4B3C008F4AFC0C430D10508F41E
:103B3000ABC0ACC0CF3BD10508F0A6C0C85AD0E09E
:103B4000CC0FDD1FCF5ADE4F0990D881C02DD46431
:103B50009DC0C11540E2D40758F4C11581E0D807D3
:103B600008F094C0C03FD10508F48EC0D0658EC067
:103B7000C11520E4D20708F487C0DF70D06A86C080
:103B8000C11545E5D40708F042C0C11584E5D80742
:103B900028F0DC2FCC27C46FD06A78C0C11523E58C
:103BA000D207B0F0CE018370992721E030E002C047
:103BB000220F331F8A95E2F78C2F8695869540E277
:103BC000849FC0011124E901C82BD92BDA685EC09B
:103BD000C11542E5D40728F4DC2FCC27C16FD06A89
:103BE00055C0CE018370992721E030E002C0220F3A
:103BF000331F8A95E2F78C2F8695869540E2849F45
:103C0000C0011124E901C82BD92BDC683FC0C115C4
:103C100089E5D807B8F4C11528E5D20728F0DC2FCC
:103C2000CC27C06FD06A32C0C11546E5D40760F515
:103C30008C2F0E94A9198F71C82FD0E0DC2FCC27C0
:103C4000D06224C0C1158AE5D80780F48C2F8F700C
:103C50000E94A91994E0D695C7959A95E1F7CF707F
:103C6000D0E0DC2FCC27D069C82B10C0CE019056F5
:103C70008115904248F48D2F8F710E94A919DD277C
:103C8000D0628F71D82B02C0C0E0D0E0CE01DF91AE
:103C9000CF910895AF92BF92CF92DF92EF92FF92B1
:103CA0000F931F93CF93DF93EC018AE0A82E288116
:103CB000222309F497C0213009F041C08981813065
:103CC00039F48E010E5F1F4F8A810E94E52308C0E0
:103CD000823041F48E010E5F1F4F8A810E94412382
:103CE000E8017EC0833039F48E010E5F1F4F8A8158
:103CF0000E94E122F5CF843011F0219671C02A8113
:103D0000229680E090E030E0205331092A303105DE
:103D100058F4A89EA001A99E500D1124C901840F3A
:103D2000951F21962881EFCF009709F459C0EFE93C
:103D3000FFE03197F1F700C000000197F5CFE22FC7
:103D4000F0E0E153FC4FB490822F869586958695DE
:103D500090E0FC01E154FC4FE4902770F12C022E1E
:103D600002C0F594E7940A94E2F7F1E0EF22FF2411
:103D7000FC01E155FC4FC490D12C022E02C0D59419
:103D8000C7940A94E2F731E0C322DD24FC01E15636
:103D9000FC4F049110E002C0159507952A95E2F7B3
:103DA00001701127E114F10419F081EE0E94412302
:103DB000C114D10419F086EE0E9441238B2D0E947C
:103DC000E523CD2819F086EE0E94E122EF2819F0B4
:103DD00081EE0E94E122012B19F08CE20E94E52382
:103DE000219665CFDF91CF911F910F91FF90EF90BA
:103DF000DF90CF90BF90AF9008951F93CF93DF9344
:103E000000D000D01F92CDB7DEB749835A83898195
:103E10009A81662359F0222349F00E944128182FE5
:103E2000682F89819A810E94BE2803C00E948E2833
:103E3000182F69817A81812F0F900F900F900F902A
:103E40000F90DF91CF911F910C94532CCF93DF9360
:103E5000EC010E94E122CE01805E9109089710F0EA
:103E6000209719F469E872E202C062E872E2CE01BA
:103E7000DF91CF910C94EC19CF93DF93EC01805E2E
:103E80009109089710F0209719F468E772E202C0D0
:103E90006EE672E2CE010E94EC198C2FDF91CF9179
:103EA0000C944123CF93DF9300D000D01F92CDB765
:103EB000DEB79093820380938103811520E29207FD
:103EC00048F40F900F900F900F900F90DF91CF91CB
:103ED0000C94261F8EEF89838A831B820E94AB2657
:103EE0008160782F9D838C8349815A816B818D817C
:103EF0000E944C2D0F900F900F900F900F90DF911C
:103F0000CF9108950F931F93CF93DF938C01EB0113
:103F100060E073E08C2F0E94372D892B09F046C09A
:103F20008091A0019091A1010E945A2ADD27C850DA
:103F3000DD4F8881F80110821882833079F048F4CF
:103F4000813041F1823091F5809102039091030319
:103F500009C0843051F08530E9F028C08091040315
:103F6000909105030097B1F01BC0809106039091DA
:103F700007030097A9F42091000330910103809179
:103F80000203909103032115310541F0009741F49C
:103F9000C90106C08091000390910103009731F0A0
:103FA000DF91CF911F910F910C94521FDF91CF9110
:103FB0001F910F910895CF93DF9300D000D01F92EF
:103FC000CDB7DEB79093820380938103811520E201
:103FD000920748F40F900F900F900F900F90DF9181
:103FE000CF910C943C1F8EEF89838A8381E08B8371
:103FF0000E94AB268160782F9D838C8349815A81F2
:104000006B818D810E944C2D0F900F900F900F901F
:104010000F90DF91CF910895AF92BF92CF92DF9230
:10402000EF92FF920F931F93CF93DF93B82EA62E9C
:10403000C0904004D0904104E0904204F0904304CA
:104040008091780390917903A0917A03B0917B03DA
:10405000C82AD92AEA2AFB2ACFE1D0E0D701C60133
:104060000C2E04C0B695A795979587950A94D2F71C
:1040700080FF13C04A2D6B2D8C2F0E944B1A8C0190
:104080008130910551F00E94DB1F8FE39CE901977D
:10409000F1F700C00000C80111C02197F8F64A2DC1
:1040A0006B2D80E00E944B1AEC010E94DB1F8FE316
:1040B0009CE90197F1F700C00000CE010E94521F59
:1040C00081E0DF91CF911F910F91FF90EF90DF90F2
:1040D000CF90BF90AF900895CF93DF93EC010E94F3
:1040E000DB1F8091A0019091A1010E945A2ACE016C
:1040F000DF91CF910C94521F0F931F93CF93DF93B7
:104100008C01862F60E073E00E94372D892BD1F45B
:10411000C0910003D09101032097A1F0F8018081A4
:10412000833039F4CE010E946C20CE010E946C20B5
:1041300002C0843038F0CE01DF91CF911F910F91F2
:104140000C946C20DF91CF911F910F9108950F93E4
:104150001F93CF93DF938C01EB0160E073E08C2F12
:104160000E94372D892B09F06DC0DD27F801808171
:10417000813041F49185911115C09285992391F078
:1041800082E010C0823049F4F8018185811107C0B6
:104190008285811106C083E005C086E003C085E00A
:1041A00001C084E0C850DD4F88838330B1F028F42B
:1041B000813071F0823031F045C08430A9F0853013
:1041C00079F140C080910203909103030097A1F51B
:1041D000809100039091010320C08091040390918D
:1041E00005030097E9F028C080910603909107032A
:1041F000009711F58091000390910103009749F019
:104200000E946C208091020390910303009781F03B
:1042100013C08091020390910303009799F00CC0A2
:104220008091000390910103009761F00E946C203F
:104230008091000390910103DF91CF911F910F9125
:104240000C94DB1FDF91CF911F910F9108950E9475
:10425000AB2620910A02211104C020910B022223D7
:1042600021F0909307028093060220910C02211105
:1042700004C020910D02222321F090930402809328
:104280000302E091D501F091D601309749F082E028
:10429000809308020480F581E02D88E092E0099483
:1042A00008958F929F92AF92BF92CF92DF92EF923A
:1042B000FF920F931F93CF93DF93C8E2D1E00EECF0
:1042C00011E09FE2C92E91E0D92E5801912CEE24E5
:1042D000E394F12CBE018881F894E82FE295EF7009
:1042E000F0E021A18F70A70102C0440F551F8A95ED
:1042F000E2F7CA01922F982B91A392A1809589236E
:1043000082A3789400C0EFE2F1E020E030E0812C5D
:104310004191842F82958F7090E0DC0190968C9172
:1043200090E04F7002C0959587954A95E2F780FD21
:1043300007C08E2D022E01C0880F0A94EAF701C033
:1043400080E0882A2F5F3F4F2730310509F72196FB
:10435000FB0180810E94A41CF0EAFA95F1F7D501D7
:104360008C91881619F08C9281E001C080E0982A27
:10437000BFEFAB1ABB0ACC16DD0609F0ABCF992014
:1043800049F081E08093F7020E94AB269093F602F9
:104390008093F5028091F7028823A9F08091F502BD
:1043A0009091F6020E949026069768F0EBE1F2E009
:1043B00085ED91E0D8012D918D0121938A179B07FE
:1043C000C9F71092F702809115018F3F49F1F12C46
:1043D00086E1E82E1BC0E09EF001E19EF00D112465
:1043E000E75DFD4FC288D388C114D10421F4C09089
:1043F0009A01D0909B01E09EE001E19ED00D112436
:10440000C75DDD4F8E81811110C0F3940F2D10E038
:1044100080911501082E000C990B80179107DCF68E
:1044200080911601811118C02BC08D859E850E9438
:104430009026C816D90648F78989811103C0CE0194
:104440000E94FE2AE09EC001E19E900D1124815D34
:104450009D4F0E941F2BD9CF8091E8029091E902D5
:10446000009771F00E949026209198013091990157
:104470002817390728F481E00E94782B0E94662BC8
:1044800080919D0180FF1CC08091170182FF18C0A0
:104490000E94AB262091EF023091F002AC01421B4A
:1044A000530B20911C0130911D014217530740F01E
:1044B00041E0BC018091ED029091EE020E949D2AA4
:1044C000892DDF91CF911F910F91FF90EF90DF9099
:1044D000CF90BF90AF909F908F900895882339F030
:1044E00090917403892B809374030C940028089591
:1044F000882339F090917303892B809373030C9474
:1045000000280895882321F00E94B7270C940028E2
:104510000895882321F00E94BE270C940028089556
:10452000E92FE295EF704E2F50E0FA013297EE300E
:10453000F105B0F4E25BFF4F0C94BC33803F91F087
:1045400018F4883E68F40EC0843F51F40BC0883ED6
:1045500048F0813F29F406C093FB882780F908952D
:1045600080E0089581E008950E9483280E949022AF
:10457000089580E090E00E947B2A80E090E00E9415
:10458000652A10927403109272030E940028E8E0DA
:10459000F2E086E0DF011D928A95E9F710920502AC
:1045A0001092020210920A030C94272110927303B6
:1045B00086E0EDE0F3E0DF011D928A95E9F70C94C7
:1045C000B922882309F45CC0823869F40E94912AD8
:1045D00081FF56C069E38BE093E00E9416270E949A
:1045E000002869E30EC0833891F40E94912A80FF6D
:1045F00047C063E58BE093E00E9416270E940028E5
:1046000063E58BE093E00E9409270C94002884382E
:1046100069F40E94912A82FF33C067E48BE093E043
:104620000E9416270E94002867E4EBCF9CEF980FAA
:10463000913A10F4682FE5CF90E2980F983050F43B
:10464000877091E001C0990F8A95EAF7892F0E943F
:10465000BE27DBCF9BE5980F933020F480E090E0FD
:104660000C947B2A98E5980F973120F480E090E035
:104670000C94652A803F20F00E942F1B0C94272168
:104680000895CF93882309F49EC0C82F8238B1F4CF
:104690000E94912A81FD97C069E38BE093E00E941C
:1046A00016270E9400282FEF81EE94E021508040D1
:1046B0009040E1F700C0000069E317C08338E1F4DF
:1046C0000E94912A80FD7FC063E58BE093E00E9409
:1046D00016270E9400282FEF81EE94E021508040A1
:1046E0009040E1F700C0000063E58BE093E00E949A
:1046F0000927CF910C9400288438B1F40E94912AA4
:1047000082FD61C067E48BE093E00E9416270E945F
:1047100000282FEF81EE94E0215080409040E1F797
:1047200000C0000067E4E1CF8CEF8C0F813A80F489
:10473000EDE0F3E083E193E02191C217E1F18E1700
:104740009F07D1F76C2F8BE093E00E941627D1CF03
:1047500080E28C0F883068F4C77081E090E001C07F
:10476000880FCA95EAF790917303892B809373039E
:10477000C0CFEBE5EC0FE33040F4F0E0E25BFE4F3E
:10478000808190E0CF910C947B2AE8E5EC0FE73133
:1047900050F4F0E0EE0FFF1FEF5AFE4F8081918141
:1047A000CF910C94652AC03F70F08C2F0E943C1C66
:1047B000CF910C9427216C2F8BE093E00E94092766
:1047C0000E940028BFCFCF9108951F93CF93DF930E
:1047D000182F893329F4C091A201D091A30104C0FC
:1047E000C091A001D091A101812F0E944123209767
:1047F00041F08FE99FE00197F1F700C00000219799
:10480000F6CF812FDF91CF911F910C94E1224F922F
:104810005F926F927F928F929F92AF92BF92CF9250
:10482000DF92EF92FF920F931F93CF93DF93CDB759
:10483000DEB761970FB6F894DEBF0FBECDBF8C0117
:1048400085E0F801DE011D9601900D928A95E1F751
:10485000D801EC901196FC90119712966C9083E120
:10486000A82E83E0B82E8090160390901703A40121
:1048700060911403809113030E949829782E81116E
:10488000DBC1F801C380D48040901503C6018819AC
:1048900099094C0120E040911303509114034420E6
:1048A00009F457C1642D70911603809117030E947B
:1048B000FD1E80919A0190919B01509018038816DB
:1048C000990608F013C14091160350911703B09058
:1048D0001303A0901403852D807F6A2D09F0A5C0D5
:1048E0008B2D0E949829811115C0AF1013C0BE10E6
:1048F00011C061100FC0852D8F70806180931803E7
:1049000083E193E00E94C41080911803D8011596AA
:104910008C93B1C120E04091130350911403609136
:10492000150370911603809117030E94FD1E80915C
:104930009A0190919B01843F914050F0A6016F2D08
:104940008E2D0E949829811115C081E0862514C002
:1049500020E040911303509114036091150370916E
:104960001603809117030E94FD1E80919F0180FD18
:10497000E5CF17C080E090E080FF13C0462D6F2D7B
:104980008E2D0E947829882361F083E193E00E94B4
:10499000C410E3E1F3E086E0DF011D928A95E9F7B8
:1049A0006AC1A6016F2D8E2D0E949829811103C026
:1049B00081E0862502C080E090E0B82FB170CB2E58
:1049C00080FF2AC0462D6F2D8E2D0E947829D82E6B
:1049D000811122C0ED86FE868D859E850E948328EA
:1049E000292F22952F70223018F0243078F405C03A
:1049F0009F7049F0811107C00DC09F7021F0F80130
:104A00009581907F39F0805E883020F0C8010E9447
:104A1000C410DC2C7D2C2FC1662009F42BC18091A1
:104A2000180381608093180326C18B2D0E9498295A
:104A3000811115C0AF1013C0BE1011C061100FC09E
:104A4000D80115965C92C8010E94C41086E0F80156
:104A5000A3E1B3E001900D928A95E1F760C0ED8685
:104A6000FE868D859E850E94B4228823C9F166202A
:104A7000B9F120911803822F82958F7090E00297F0
:104A800074F0809113039091140398878F83198693
:104A9000DB86CA862C87CE0107960E94C41086E06A
:104AA000F801A3E1B3E001900D928A95E1F70E942D
:104AB000B12919C0909013038090140340911603FC
:104AC00050911703682D892D0E9498298823B1F0F1
:104AD000ED86FE868D859E850E94B422811121C0BF
:104AE000C8010E94C41077247394C5C0852D807FAF
:104AF00009F783E193E00E94C41098C08F10E8CFBB
:104B00009E10E6CF6110E4CFD80115965C92C801E3
:104B10000E94C41086E0F50111928A95E9F7742C81
:104B2000AAC06620E9F220911803822F82958F7027
:104B300090E002970CF4B3CF80911303909114038B
:104B40009A8389831B82DD82CC822E83CE010196DB
:104B5000A4CF60E070911603809117030E94FD1EA0
:104B600080919A0190919B018816990608F05EC089
:104B7000762C662009F4B4CFC0901303D0901403B0
:104B800040911603509117036D2D8C2D0E9498298A
:104B900081113BC0DF1039C0CE1037C020E0A60124
:104BA0006091150370911603809117030E94FD1EFA
:104BB00080919F0182FD20C08091180380FD1CC060
:104BC00082958F70482F50E041155105A9F0209132
:104BD0001803D80115962C9315974F30510549F0BD
:104BE0008F5F982F9295907F822F8F70892B1596CB
:104BF0008C93C8010E94C41086E0F801A3E1B3E0E1
:104C000001900D928A95E1F736C0ED86FE868D857E
:104C10009E850E94B422811142CF80911803816049
:104C200080931803C8010E94C41025C086E0F501D6
:104C300011928A95E9F71FC0662009F451CFED86DD
:104C4000FE868D859E850E94B422782E882309F4E5
:104C500047CF86E0F801A3E1B3E001900D928A9579
:104C6000E1F780911303909114030E9483280E941E
:104C7000B12901C0712C872D61960FB6F894DEBF63
:104C80000FBECDBFDF91CF911F910F91FF90EF909D
:104C9000DF90CF90BF90AF909F908F907F906F905C
:104CA0005F904F90089580E0089598E088E10FB6F6
:104CB000F894A895809360000FBE90936000A8952B
:104CC000F894D8E0CEEF28E3299320E0299314BE8E
:104CD000FFCF089578941F920F920FB60F92112470
:104CE0008F939F93AF93BF9380917D0390917E03A9
:104CF000A0917F03B09180030196A11DB11D809307
:104D00007D0390937E03A0937F03B0938003BF91B4
:104D1000AF919F918F910F900FBE0F901F9018959C
:104D20009C014FB7F89480917D0390917E03A091F0
:104D30007F03B09180034FBF821B930B08952FB761
:104D4000F89460917D0370917E0380917F03909130
:104D500080032FBF08952FB7F89480917D03909121
:104D60007E03A0917F03B09180032FBF08951F920F
:104D70000F920FB60F9211248F939F93AF93BF930F
:104D800080917C03811113C080917D0390917E03FB
:104D9000A0917F03B09180034196A11DB11D809326
:104DA0007D0390937E03A0937F03B0938003BF9114
:104DB000AF919F918F910F900FBE0F901F901895FC
:104DC00080912602882321F110927C0320E488E15F
:104DD00090E00FB6F894A895809360000FBE2093E2
:104DE000600083B7817F846083BF83B7816083BFA6
:104DF0007894889583B78E7F83BF0FB6F894A89573
:104E000080916000886180936000109260000FBE06
:104E100008959C012A5F3F4FFC014281461301C067
:104E20001282019682179307B9F708959C01FC013D
:104E300032969FEF80E04191461789F09F3F19F429
:104E4000411101C0982F8F5F8630A9F79F3F39F03D
:104E5000F901E90FF11D97FDFA9562830895089510
:104E6000CF9384E090E00E943E33C82F82E290E02E
:104E70000E943E332C2F30E0A901582BCA01CF915C
:104E800008956AEE7EEF80E090E00E946A3360E071
:104E900082E090E00E944C3360E083E090E00E946A
:104EA0004C33109278031092790310927A03109287
:104EB0007B0360E084E090E00E944C3360E082E29B
:104EC00090E00E944C3360E085E090E00E944C331B
:104ED00060E086E090E00E944C336FEF87E090E066
:104EE0000E944C3340E050E0BA0188E090E00E941C
:104EF0005E3360E08DE090E00E944C3340E050E093
:104F0000BA0188E190E00E945E3360E087E190E0C2
:104F10000E944C3340E050E0BA018CE190E00E94E6
:104F20005E3360E070E080E290E00E946A3340E02F
:104F300050E0BA0188E190E00E945E3340E050E02A
:104F4000BA018FE090E00E945E3340E050E0BA0189
:104F500083E190E00C945E3380917703882331F0F5
:104F6000109277031092760310927503089580953E
:104F70009091740389238093740308958095909190
:104F800073038923809373030895CF93C091CD0158
:104F9000C2FB992790F9981781F080FBC2F9C09362
:104FA000CD016091CC0184E090E00E944C336C2FE5
:104FB00082E290E0CF910C944C33CF9108951092FF
:104FC00071031092700310926F0308958091840111
:104FD00090918501892B89F00E94AB262091750361
:104FE00030917603AC01421B530B81E02091840188
:104FF000309185014217530708F480E081700895CD
:105000009091730380917403892B90917203892B83
:1050100080930B0380917703882301F180918401B1
:1050200090918501892B29F00E94E62781110E9429
:10503000AC2790910B0380917703892B80930B030E
:10504000EDE0F3E097E080E0915029F021912223F8
:10505000D9F38F5FF9CF81110E94AC27E091D50180
:10506000F091D601309731F00280F381E02D8BE092
:1050700093E00994089580916E03811110926E035C
:105080000895BF92CF92DF92EF92FF920F931F93FA
:10509000CF93DF938C01C0904004D0904104E09006
:1050A0004204F09043048091780390917903A09199
:1050B0007A03B0917B03C82AD92AEA2AFB2ACFE1D6
:1050C000D0E0D701C6010C2E04C0B695A7959795E0
:1050D00087950A94D2F780FD04C0219790F7B12CF0
:1050E00007C0BC2EB8018C2F0E94BB1C0197A9F3EE
:1050F0008B2DDF91CF911F910F91FF90EF90DF905B
:10510000CF90BF900895CF93DF93EC010E94412888
:10511000BE010E94BB1CDF91CF9108959E3F61F1BB
:1051200027E0929F800D1124682F669566956695FD
:10513000982F977085E0689FB001112440E050E0FF
:1051400080E0FB01E40FF51FE55BFC4F208130E0C0
:10515000092E02C0369527950A94E2F7217033276D
:10516000042E01C0220F0A94EAF7822B4F5F5F4F93
:105170004530510531F7089580E008959E3F51F183
:1051800027E0929F800D1124E82FE695E695E6959D
:10519000877051E001C0550F8A95EAF785E0E89FD6
:1051A000F0011124E55BFC4F20E030E070E040812D
:1051B000CB01022E02C0969587950A94E2F7817082
:1051C000819584278523842781932F5F3F4F253046
:1051D000310569F70895609340047093410480930A
:1051E0004204909343040C94B9220F931F9341E01F
:1051F00050E060E070E004C0440F551F661F771F49
:105200008A95D2F7409550956095709580914004AD
:1052100090914104A0914204B09143048A019B0102
:10522000082319232A233B23C901B8011F910F9199
:105230000C94EB2820917103809582238093710355
:10524000982F977041F430E0482F082E000C550B32
:105250002417350721F49091CD0192FF07C0859561
:10526000859585950E94F5280C94DF2708950F9366
:105270001F9341E050E060E070E004C0440F551F10
:10528000661F771F8A95D2F7809140049091410460
:10529000A0914204B09143048A019B01082B192B71
:1052A0002A2B3B2BC901B8011F910F910C94EB28BD
:1052B0009091CD0192FD10C098E0899F900111243A
:1052C000262B209371030E9437290E94AB269093CE
:1052D000700380936F0308950C94372960937803CB
:1052E0007093790380937A0390937B030C94B92293
:1052F00020914A039091190356E02917A9F030E054
:10530000529FF001539FF00D1124E65EFC4F718116
:10531000761306C07081781303C07281741306C0BF
:105320002F5F3F4F2770E9CF80E0089581E0089517
:10533000452B41F06F3F41F491E08F3F09F090E041
:10534000892F03C081E001C080E0817008958091C1
:105350004A0390911903891719F08F5F8770FBCF6B
:105360000895BF92CF92DF92EF92FF920F931F9317
:10537000CF93DF938091180382958F7009F062C0FC
:1053800080911503882309F45DC0C0914A0386E02B
:10539000B82E80911903C81709F454C0F090130374
:1053A000E0901403C0901603D0901703A6016E2D51
:1053B0008F2D0E949829D0E0811141C0BC9E8001B0
:1053C000BD9E100D1124F801E65EFC4F51815E1167
:1053D00036C040814F1133C08281811130C0E380DB
:1053E000F480EC18FD0820E060911503709116031D
:1053F000809117030E94FD1E80919A0190919B015C
:10540000E816F906E0F4809118038F7080618093AC
:105410001803F801E15EFC4F80818F70806180830A
:1054200083E193E00E94C410DF91CF911F910F910F
:10543000FF90EF90DF90CF90BF900C94A72921961A
:10544000C770A7CFDF91CF911F910F91FF90EF9081
:10545000DF90CF90BF900895E2E8F1E084819581DC
:105460002AE030E0B9010E949433609313018681F1
:1054700080931401828580931B01848580931A0197
:1054800086859785B9010E949433609311018089C4
:105490008093120182898093190184898093180175
:1054A0000895809182019091830190931D018093D2
:1054B0001C010895009741F0EFE9FFE03197F1F703
:1054C00000C000000197F6CF089520918703309126
:1054D00088032817390771F0909388038093870316
:1054E000E091D501F091D601309721F00084F1854B
:1054F000E02D0994089520918503309186032817A3
:10550000390771F09093860380938503E091D5016C
:10551000F091D601309721F00680F781E02D0994B3
:105520000895E091D501F091D601309721F00190D6
:10553000F081E02D099480E00895FF920F931F936E
:10554000CF93DF938C01EB01F42E8091170182FF42
:105550003CC08B7F809317018091EF029091F00205
:105560009B01281B390B80911C0190911D0128176C
:10557000390750F48091ED020E9441238091170178
:105580008D7F8093170116C0809174038260809391
:1055900074038091ED020E94412380911701826083
:1055A0008093170180919D0185FF04C086FD02C094
:1055B000F1101EC08091A0019091A1010E945A2A71
:1055C0008091ED020E94E1220AC0802F0E94E12218
:1055D0008091ED029091EE020817190719F482E00C
:1055E0000E94B7270E940028D093F002C093EF02D8
:1055F000DF91CF911F910F91FF900895CF93DF938B
:10560000EC0181E0898B909173038F81892B8093CA
:105610007303909174038885892B809374030E948F
:105620000028EA81FB81CE010696309729F06C892B
:105630007D89DF91CF910994DF91CF910895EF9209
:10564000FF920F931F93CF93DF93FC0122852111CB
:1056500036C0EC01E380F480F7E5FF1A26E12E9DC9
:10566000C0012F9D900D1124DC01A75DBD4F149644
:10567000ED91FC911597815D9D4F309729F05496DF
:105680006D917C915597099586E18E9D80018F9D46
:10569000100D1124075D1D4FF80187810E94BE2760
:1056A000F80180850E94B7270E9400281882198679
:1056B0001B861E821D821092280210922702DF9103
:1056C000CF911F910F91FF90EF900895E4EAF1E0E0
:1056D00080E090E08830910531F0248127FF14822A
:1056E00001963596F7CF9093EC028093EB020895E4
:1056F000CF939091E7029923C9F0882311F0C0E07D
:1057000003C01092E70212C08091E702C817C8F7E1
:10571000EC2FF0E0EE0FFF1FE752FD4F80819181EB
:105720000E943C1F0E940028CF5FEECFCF910895CA
:10573000809101028823F9F00E949F26DC01CB01B1
:10574000805A9541AF4FBF4F8093FC019093FD016C
:10575000A093FE01B093FF018091000281110BC064
:1057600062E070E087EE95E00E943F30892B19F4EB
:1057700081E0809300028091000208950F931F93AF
:10578000CF93DF9302E811E0CFEBD1E0CE010E948E
:105790003E33F80181938F012196C13EF1E0DF078E
:1057A000A9F7C0E0D0E0FE01EB5CFE4F859194913B
:1057B000009711F0FC0109952896C839D10599F791
:1057C000DF91CF911F910F9108950F931F93CF9366
:1057D000DF9302E811E0CFEBD1E0CE010E943E332F
:1057E000F80161918F01681719F0CE010E944C33C6
:1057F0002196C13EF1E0DF0781F7DF91CF911F9144
:105800000F910895E2E8F1E0128E138E8FEA90E096
:105810009183808385E0848F88E893E193838283FA
:105820002CE231E03583248382E390E09783868302
:1058300085E090E0918780878AE090E09387828777
:1058400044E150E0558744873787268724E630E0D7
:10585000318B208B28E030E0338B228B28E230E044
:10586000358B248B28EC30E0378B268B318F208FC3
:10587000158E978F868F80E590E091A380A30E947C
:10588000E52B0C94BE2BCF93DF93C1E8D2E060E010
:10589000CE010E944C332196C11584E0D807B9F798
:1058A000DF91CF910895462F209124023091250257
:1058B000232B91F47E3F39F46E3F71F48091810384
:1058C000909182030895843038F4773028F467305B
:1058D00018F4672F0C94AB1A80E090E008954F9273
:1058E0005F926F927F928F929F92AF92BF92CF9270
:1058F000DF92EF92FF920F931F93CF93DF93CDB779
:10590000DEB764970FB6F894DEBF0FBECDBF6090D0
:1059100022027090230281E090E090932302809312
:1059200022029FE4E92E94E0F92EA12CB12C512CF7
:10593000412CC12CD12C00E010E045018C0C9D1CA9
:10594000F801EE0FFF1FE80DF91DE15AFB4F2591FD
:105950003491402F642D852D0E94751A0F5F1F4FC3
:105960000730110569F78EE0C80ED11C4394E7E0BB
:105970004E12E1CFF7012591349140E060E0852D92
:105980000E94191AF70132962591349141E060E0A6
:10599000852D0E94191AF4E0EF0EF11C539482E653
:1059A000A80EB11CE4E05E12C3CF0E94022C1A8242
:1059B00019821C821B821E821D8218861F8288EC1F
:1059C00090E09A87898701EE11E04AE050E0B80143
:1059D000CE0101960E947033065F1F4F0133F2E043
:1059E0001F0799F77E018BE0E80EF11C8AE0F701B2
:1059F00011928A95E9F74AE050E0B801C7010E9488
:105A00007033065F1F4F0138F2E01F07A1F7709255
:105A100023026092220264960FB6F894DEBF0FBE96
:105A2000CDBFDF91CF911F910F91FF90EF90DF904D
:105A3000CF90BF90AF909F908F907F906F905F902E
:105A40004F900895883080F49B01982F8AE0989FAA
:105A5000B00111246F5C7D4F4AE050E0C9010E9403
:105A60002E3380E090E008958FEF9FEF0895883007
:105A700080F49B01982F8AE0989FB00111246F5108
:105A80007E4F4AE050E0C9010E942E3380E090E052
:105A900008958FEF9FEF0895CF92DF92FF920F93BB
:105AA0001F93CF93DF93CDB7DEB767970FB6F89408
:105AB000DEBF0FBECDBFF42E4B8B052F5C8B162F98
:105AC0006D8B7E8B8F8BCE88DF88A601602F8F2D0C
:105AD0000E949829811109C08091F3029091F402EB
