:100000000C94F9060C9440070C9440070C9440079C
:100010000C9440070C9440070C9440070C94400744
:100020000C9440070C9440070C9493310C94483086
:100030000C9466200C9440070C9440070C944007E5
:100040000C9440070C9440070C9440070C94400714
:100050000C9440070C9419200C9440070C94400712
:100060000C9440070C9440070C9440070C944007F4
:100070000C9440070C9440070C9440070C944007E4
:100080000C9440070C9440070C9440070C944007D4
:100090000C9440070C9440070C9440070C944007C4
:1000A0000C9440070C9440070C944007360F500FF7
:1000B000570F8F0FA00FAB0FBC0FCD0F0C101110EF
:1000C000941094109410191094169416CC16CC1603
:1000D00048170C190C190C196417421853185318A7
:1000E000082208221B221B2211221B221B221B2258
:1000F0000822082216221B221B221622502E772E9F
:100100002A30772E2A30C32EE62E2A30E72FF72FFB
:1001100000DA0281FFD9F1DB20A4A62EAF00A0C037
:1001200000A1C800AED580A81FD300408D142000C8
:10013000643214783C1E1E140A05208E8F9000CA6B
:10014000CBCCCD00AAABACADAE008A8B8C8D0020A1
:100150002020200053435220002020202000434133
:1001600050200020202020004E554D200000556ECC
:1001700064656600464E203300464E203200464EEF
:1001800020310042617365004C617965720000AEF8
:10019000FD377A585A000004E6D6B4460200210121
:1001A00016000000742FE5A3E0055801CE5D003D68
:1001B0008889C65436C3174FE4E2A41EBE23B1C7D4
:1001C0006ABBF4BDC0935A4355CA32733947446081
:1001D0001F298E4B1B58F56CA1E177784248FF052B
:1001E00053158D88F0BC5B3F27A5621E4E128157C8
:1001F000ADF4B982366E714996FF28C715A7778886
:10020000C966D19E6DD0C3302E1C849CDF75814A97
:10021000827AB614647D4E629941A0AAB5B9A05500
:100220003603311FF0ADEFACBA023BC5DB496F7747
:10023000E413C6C21B3EF2F6E2439383F6858D17A4
:10024000785A488C5B879427251083A12ACAF356D5
:10025000C809FD28763FC8347D8FEB1D20AA714563
:1002600014470892960349A5D1C8677B3D66A42D23
:100270000873C2CB98ADECFD91F744592F3AA78E85
:100280009A00A856B352F7ED753B0DC1036864CAD6
:10029000A017E6BDD31A05A1B0B11075B4EB2D5867
:1002A00013EC52C5A9CF2E883B512A3426257E91C6
:1002B00031EE756F03B7C1BFE364D0AB8C86ECC37E
:1002C0002F43891F546F42EAB967B40D1170A671AC
:1002D0007C85EEC7A4D6640CF8DE79681AB84EF2B5
:1002E00051BA27A0E8846F3599A3E65B0453BF1D7C
:1002F000B3D0CF29D8C7BE772AB650CA4CE336F25E
:100300002794A70D2C42F1FBB007A24F3DC980DD19
:10031000DDF6FDD5B983DA475CDD9CCA03F13FBF4A
:10032000125407268E5B9F5946F813E2508699E5D2
:100330003C55C1B58EA49A5F9812111D474B80F6AB
:100340005ECCD13117CDC7930388B2C4C6CD9EA76A
:10035000A46488DABCE480CCD244EA6E4BF9E0664F
:10036000CE35C4C6E97B57656CEB9FD08DE21D414D
:10037000E458D5FEFFE7745D250AF5430000000050
:10038000D4E11AAA1D555C8E0001EA03D90A0000C7
:100390002CE5E165B1C467FB020000000004595A76
:1003A000000000000000000000000000000000004D
:1003B000000000000000000000000000000000003D
:1003C000000000007E0F00D4FFFFFFC70000007890
:1003D00000000000000000002A2B280000000000A0
:1003E00000000000000000000000002900000000E4
:1003F0002C1E3420212224342627252E362D373852
:10040000271E1F202122232425263333362E37385A
:100410001F0405060708090A0B0C0D0E0F10111218
:10042000131415161718191A1B1C1D2F3130232DE4
:10043000350405060708090A0B0C0D0E0F101112E2
:10044000131415161718191A1B1C1D2F3130354C93
:100450000001010101010101010102020202020287
:10046000020202030303030303030304040404045A
:100470000404050505050506060606060707070721
:100480000708080808090909090A0A0A0B0B0B0CD6
:100490000C0C0D0D0D0E0E0E0F0F0F101011111173
:1004A00012121313141415151616171718181919F4
:1004B0001A1A1B1B1C1D1D1E1E1F20202122222359
:1004C0002424252626272829292A2B2C2D2D2E2F9A
:1004D00030313232333435363738393A3B3C3D3EB1
:1004E0003F404142434445464748494A4C4D4E4FA0
:1004F00050515354555658595A5B5D5E5F61626462
:10050000656668696B6C6D6F7072737577787A7BEE
:100510007D7E8082838587888A8C8E8F9193959645
:10052000989A9C9EA0A2A3A5A7A9ABADAFB1B3B565
:10053000B7BABCBEC0C2C4C6C9CBCDCFD1D4D6D841
:10054000DBDDDFE2E4E7E9EBEEF0F3F5F8FAFDFFDF
:10055000FFAA7F55402223252628292A2C2D2F301B
:1005600032333536383A3B3D3E4042434547494AAF
:100570004C4E5051535557595A5C5E6062646668E0
:10058000696B6D6F71737577797B7D7F81838587EB
:10059000898A8C8E90929496989A9C9E9FA1A3A5EE
:1005A000A7A8AAACAEAFB1B3B4B6B8B9BBBCBEBF16
:1005B000C1C2C3C5C6C7C9CACBCCCDCED0D1D2D299
:1005C000D3D4D5D6D7D7D8D9D9DADADBDBDBDCDCA4
:1005D000DCDCDCDDDDDDDDDCDCDCDCDCDBDBDBDA5C
:1005E000DAD9D9D8D7D7D6D5D4D3D2D2D1D0CECDC7
:1005F000CCCBCAC9C7C6C5C3C2C1BFBEBCBBB9B8D4
:10060000B6B4B3B1AFAEACAAA8A7A5A3A19F9E9C58
:100610009A98969492908E8C8A89878583817F7D23
:100620007B79777573716F6D6B6968666462605E04
:100630005C5A5957555351504E4C4A4947454342CD
:10064000403E3D3B3A3836353332302F2D2C2A2967
:100650002826252322AA00A900010001000100018B
:100660000001000100AA00A9000100010001000131
:10067000000100010001003A003B003C003D000188
:1006800000530054005500560001005F00600061F7
:10069000005700A8005C005D005E00000001515999
:1006A000005A005B0058002A00620000006300004E
:1006B0000001000100010001000100010001000132
:1006C00000010001000100C65CCB5CC55C010001BB
:1006D00000C45CC25CC35C00000100CA5CCC5CC9A5
:1006E0005C01000100C85C0000C75C000001000163
:1006F00000010001000100010001000100010001F2
:1007000000010001000100010001000100010001E1
:1007100000010000000100010001000100010001D2
:1007200000010001000100000001000100010001C2
:1007300000010001000100010001000100010001B1
:1007400000010001000100010001000100010000A2
:100750000001000100010001000100010001000191
:10076000000100000000AF05010980A10185031907
:10077000012AB700150126B700950175108100C048
:10078000050C0901A101850419012AA00215012601
:10079000A002950175108100C00660FF0961A101EA
:1007A0000962150026FF009520750881020963156E
:1007B0000026FF00952075089102C005010906A1D9
:1007C00001050719E029E715002501950875018144
:1007D000029501750881010507190029FF150026FA
:1007E000FF00950675088100050819012905950582
:1007F00075019102950175039101C009025B000327
:100800000100A0FA090400000103010100092111FF
:100810000100012240000705810308000A090401C4
:10082000000203000000092111010001222200073B
:1008300005820320000107050303200001090402CB
:10084000000103000000092111010001223200070C
:1008500005840320000A1201100100000008776DD2
:1008600005170103010203011C0376006900610002
:100870006C003A006600360034006300320062000B
:1008800033006300000012034D0075007200700019
:100890006800500061006400000012034D00650014
:1008A00063006800570069006C00640000000403E6
:1008B00009040000000000003E5B4F5B3E003E6B01
:1008C0004F6B3E001C3E7C3E1C00183C7E3C1800DA
:1008D0001C577D571C001C5E7F5E1C0000183C18D6
:1008E0000000FFE7C3E7FF00001824180000FFE73F
:1008F000DBE7FF0030483A060E002629792926005A
:10090000407F05050700407F05253F005A3CE73C36
:100910005A007F3E1C1C0800081C1C3E7F0014224D
:100920007F2214005F5F005F5F0006097F017F0088
:10093000006689956A0060606060600094A2FFA212
:10094000940008047E04080010207E20100008088F
:100950002A1C0800081C2A0808001E10101010008D
:100960000C1E0C1E0C0030383E383000060E3E0EB9
:10097000060000000000000000005F00000000070B
:1009800000070000147F147F1400242A7F2A12001D
:1009900023130864620036495620500000080703FC
:1009A0000000001C224100000041221C00002A1C03
:1009B0007F1C2A0008083E080800008070300000F4
:1009C0000808080808000000606000002010080403
:1009D00002003E5149453E0000427F4000007249FE
:1009E000494946002141494D33001814127F100037
:1009F0002745454539003C4A494931004121110903
:100A00000700364949493600464949291E00000079
:100A100014000000004034000000000814224100CF
:100A2000141414141400004122140800020159097E
:100A300006003E415D594E007C1211127C007F4938
:100A4000494936003E41414122007F4141413E003B
:100A50007F49494941007F09090901003E4141514F
:100A600073007F0808087F0000417F41000020409C
:100A7000413F01007F08142241007F404040400078
:100A80007F021C027F007F0408107F003E4141412D
:100A90003E007F09090906003E4151215E007F09A1
:100AA0001929460026494949320003017F01030004
:100AB0003F4040403F001F2040201F003F40384043
:100AC0003F006314081463000304780403006159B1
:100AD000494D4300007F41414100020408102000BD
:100AE000004141417F0004020102040040404040B7
:100AF00040000003070800002054547840007F287D
:100B000044443800384444442800384444287E0093
:100B100038545454180000087E0902001824241C7C
:100B200078007F080404780000447D4000002040E5
:100B3000403D00007F102844000000417F4000003D
:100B40007C04780478007C08040478003844444429
:100B500038007C1824241800182424187C007C08F1
:100B60000404080048545454240004043F4424005E
:100B70003C4040207C001C2040201C003C40304079
:100B80003C004428102844004C9090907C00446421
:100B9000544C44000008364100000000770000007B
:100BA0000041360800000201020402003C26232610
:100BB0003C00000000E0FEFFFEF8C0000000000066
:100BC000E0FCFFFEF0C00000000000000000013E5D
:100BD000E080700E0100000000073CE08078070014
:100BE0000000000000000000000000000000000005
:100BF00000E0FEFFFEF8C00000000000E0FCFFFE89
:100C0000F00000000000013EE080700E01000000D6
:100C100000073CE0807807000000000000000000B2
:100C200000000000000000000000000000000000C4
:100C300000000000000000000000000000000000B4
:100C400000000000000000000000000000000000A4
:100C50000000000000000000000000000000000094
:100C60000000000000000000000000000000000084
:100C700000000000F8FFFF1F071FFFFEF0C0F8FF95
:100C8000F707077FFFFFF800C0380C1860800000EE
:100C900000F00C04F41C00000000000080C0FCE622
:100CA000C3C1C1C3E6FCC08000000000000000001A
:100CB000F8FFF707071FFFFEF0C0F83F8F0F3FFF59
:100CC000FFFE80F00C04F41C000000000000000097
:100CD0000000000000000000000000000000000014
:100CE0000000000000000000000000000000000004
:100CF00000000000000000000000000000000000F4
:100D000000000000000000000000000000000000E3
:100D100000000000000000000000000000000000D3
:100D200000000000000000000000000000000000C3
:100D30000000001F1F1F0700000000031F1F0F01FE
:100D40000306F800077F3F0EC138070E70831C6052
:100D50001E03C03E01000000000000003F7FFFFFB7
:100D6000F9C0C0F9FFFF7F3F000000000000001F36
:100D70001F1F0706F80000733F0FC138070F70836D
:100D8000077F1F03C03E01000000000000000000BC
:100D90000000000000000000000000000000000053
:100DA0000000000000000000000000000000000043
:100DB0000000000000000000000000000000000033
:100DC0000000000000000000000000000000000023
:100DD0000000000000000000000000000000000013
:100DE0000000000000000000000000000000000003
:100DF000000011241FBECFEFDAE0DEBFCDBF04B686
:100E000003FE27C08091BA059091BB05A091BC0557
:100E1000B091BD058730904BA740B04BD1F41092F4
:100E2000BA051092BB051092BC051092BD0514BE08
:100E300084B7877F84BF0FB6F894A895809160002F
:100E4000886180936000109260000FBEE0E0F8E3DC
:100E5000099511E0A0E0B1E0E8E8FAE602C00590EB
:100E60000D92A83AB107D9F725E0A8EAB1E001C090
:100E70001D92AA3BB207E1F70E9442070C9442354B
:100E80000C940000CF93DF93CDB7DEB7E6970FB693
:100E9000F894DEBF0FBECDBF84B7877F84BF0FB687
:100EA000F894A8958091600088618093600010920A
:100EB00060000FBE90E080E80FB6F8948093610068
:100EC000909361000FBE85B7806885BF85B7806845
:100ED00085BF80EA9FE19093A9018093A8010E94B9
:100EE0009128EAEAF1E080E090E091838083019626
:100EF000359688309105C9F70E948C300E943231B6
:100F00008091E20084608093E20078948091A9034C
:100F10008823A1F01091E9001F709091EC00892FB7
:100F2000817090FD80E8182B1092E9008091E80014
:100F300083FD0E946A2D1F701093E90082E084BD3A
:100F400093E095BD9AEF97BD80936E0007E211E0A4
:100F5000BDE2EB2EB1E0FB2ED8018D918D010E94F8
:100F6000321CE016F106C1F785E30E94321C87E9C6
:100F70000E94321C86E60E94321C84E90E94321CC8
:100F800086E30E94321CE4EDF1E08AED91E0A7E2F5
:100F9000B2E011921D928E179F07D9F780E090E082
:100FA0000E949E348A3E9E4F11F00E94BA2082E039
:100FB00090E00E949034809315020E94A9209093A3
:100FC000D3018093D2010E94A41EEFE3FCE9319784
:100FD000F1F700C000000E94A41E8091270281FF4B
:100FE00017C06FEF83E290E00E94A4346FEF84E2B9
:100FF00090E00E94A4346FEF85E290E00E94A43458
:101000006FEF7FEF80E090E00E94C2340E940820E2
:1010100083E090E00E949034682F70E080E090E0E0
:101020000E94012383E290E00E949034823381F495
:1010300084E290E00E949034823551F485E290E0A1
:101040000E94903491E0893909F090E0892F01C025
:1010500080E080FD02C00C94B71083E080930C0206
:1010600080E28093AE030E9492336DE070E083E2F1
:1010700091E00E94412D892B09F043C080910C0220
:1010800063E070E081FD3AC080E291E00E94412D72
:10109000892BB9F56DE070E080E191E00E94412D6F
:1010A000892B79F50E944E20DC01CB01805A9541B5
:1010B000AF4FBF4F80930E0290930F02A093100288
:1010C000B0931102E1EBF3E080E092E0DF019C01DC
:1010D0001D9221503040E1F7F093B805E093B70539
:1010E0008FEF9FEF9093B0038093AF0381E08093E5
:1010F00013028093120210920D0203C08DE191E061
:10110000C5CF8091DA01811136C080E090E00E9465
:101110009E348A3E9E4F21F00E94BA200E944C1AB3
:1011200088E090E00E94983460932202709323023A
:1011300080932402909325026E7F71F40E944C1AD2
:1011400088E090E00E94983460932202709323021A
:1011500080932402909325020E94051A1092210286
:101160008091220280FF04C060E086950E94E41B0B
:1011700081E08093DA01FAEE8F2EF1E09F2E22E4D7
:1011800031E044E451E0A8EE6A2EA1E07A2E61E05D
:1011900070E08614970409F44EC0FA01A191AF01E2
:1011A0008A2F82958F7090E0FC01F1A0AF70EA2E3B
:1011B0008B0101C0000FAA95EAF7F02FF095FF22EE
:1011C000DC019196FC9291979296AC91A02BFC0138
:1011D000A2A3D901FD909D01EF2DE295EF70F0E003
:1011E000B1A0BF2DBF70FB2E6B0101C0CC0CBA9516
:1011F000EAF7DC2CD094DB20D1A2D2A0CD28C2A269
:10120000DC0190968C9190E002C095958795EA94C8
:10121000E2F78170E0A1F0E002C0F595E795FA945D
:10122000E2F7E0FF02C092E001C090E0892BF301F9
:1012300081933F01AECF87E091E09093EB018093E3
:10124000EA0122242394312C8091A903853009F0EE
:1012500076C070E4F72EEE24E39400E112E1809171
:10126000A903853009F056C08091A903843009F4A0
:101270003FC0109221028091DD01811116C0E092E1
:10128000DD0180912202982F91709093DC018E7F76
:1012900080932202FFEF20E732E0F15020403040FF
:1012A000E1F700C000000E94BE191092DB0188E146
:1012B00090E00FB6F894A895809360000FBEF0926E
:1012C000600083B7817F846083BF83B7816083BF01
:1012D0007894889583B78E7F83BF0FB6F894A895CE
:1012E00080916000886180936000109260000FBE62
:1012F00080919F03882309F4B2CF0E94A41EE7E2E5
:10130000F2E08191811114C7ADE2B2E0AE17BF07E0
:10131000C1F7A5CF0E9430250E94B6251092DD01AD
:101320008091DC01882349F08091220281608093C2
:10133000220260E086950E94E41B0E94162C0E9407
:10134000A41E482E81110E944E20A6E1B2E0E7E2E1
:10135000F2E000E010E0302F21919D91922721F1E1
:1013600080E0FF24F394492F4F21D1F08BA73CA7B5
:101370002F2181E009F480E08DA70E945A2081602E
:10138000782F9FA78EA74BA55CA56DA58FA50E9462
:10139000FF28F801EA5EFD4F8081F826F08219C02F
:1013A0008F5FFF0C8530F9F60F5F1F4F0630110578
:1013B00091F68FEF88AB89AB1AAA0E945A20816000
:1013C000782F9CAB8BAB48A959A96AA98CA90E941C
:1013D000FF2880912102882309F45BC080912002BC
:1013E000E0912202E695E81BE093E001823059F497
:1013F000F0E0EA5CFE4FE4910E2F10E066E7E62E87
:1014000065E2F62E21C0863059F4F0E0ED5CFE4F27
:10141000E4910E2F10E056E6E52E55E2F52E14C0AD
:10142000893061F4E695F0E0E05DFE4FE4910E2F27
:1014300010E04CE3E42E45E2F42E06C000ED17E088
:101440003BE3E32E35E2F32E8091E101882361F046
:101450001092E1010E945A209093DF018093DE01F7
:101460001092E3011092E2010E945A20E091DE0105
:10147000F091DF018E1B9F0B8F3F9F4750F40E0FA3
:101480001F1F1093DF010093DE018EED91E0F70145
:10149000099506EEE02E01E0F02E04EE11E088EE54
:1014A000A82E81E0B82E92E4892E91E0992E24E4B2
:1014B000622E21E0722EBEAAADAA512CD12CADA96C
:1014C000BEA98D91BEABADABE82FEE0FEE0FD301F1
:1014D0002D913D01A22FA295AF70B0E090968C9116
:1014E00090E02F7002C0959587952A95E2F79C01B0
:1014F00021703327D4018D914D01A82FA295AF7093
:10150000B0E090964C9150E08F7002C05595479591
:101510008A95E2F7CA018170992740FF02C082E0F4
:1015200090E0822B932B8E2BF50181935F018F70BE
:10153000E82FF0E0EE5CFE4F9081D7018C91890F8F
:101540008C93843054F0F80180818F5F808360E059
:101550008D2D0E94FB2A21E001C020E0D7018C9153
:101560008D3F4CF4F80180818150808361E08D2DA6
:101570000E94FB2A21E0D7018C91082E000C990BC8
:1015800064E070E00E940035F70181937F01522AE8
:10159000D3940F5F1F4FF2E0DF1291CF51100E94E2
:1015A0004E2080911302882309F4C9C180E00E9473
:1015B000BA2C80E00E94BA2C8AE491E00E94AC2C04
:1015C00081E00E94BA2C84E491E00E94AC2C82E07D
:1015D0000E94BA2C8FE391E00E94AC2C83E00E9421
:1015E000BA2C8AE391E00E94AC2C86E00E94BA2CCF
:1015F00088E891E00E94CC2C8091AA039091AB03E3
:10160000A091AC03B091AD03AD01662777274115DA
:1016100051056105710521F4AC01BD0180E001C0F7
:1016200080E1052F162F272F3327011511052105DE
:10163000310519F0885FB901A8018A019B01A4E076
:101640003695279517950795AA95D1F70115110598
:101650002105310519F08C5FB901A8018A019B01B0
:10166000F2E03695279517950795FA95D1F701156C
:1016700011052105310519F08E5FB901A801769594
:10168000679557954795452B462B472B09F08F5F5C
:10169000813059F038F0823059F0833061F484E7BA
:1016A00091E00BC083E891E008C08EE791E005C0AF
:1016B00089E791E002C08EE691E00E94CC2C8DE695
:1016C00091E00E94CC2CE091EA01F091EB0130977F
:1016D00029F00190F081E02D099501C080E081FBA7
:1016E000002700F982FB112710F980FF03C088E66C
:1016F00091E002C083E691E00E94CC2C002319F017
:101700008EE591E002C089E591E00E94CC2C112386
:1017100019F084E591E002C08FE491E00E94CC2CA6
:1017200080911302882309F4E3C02091AF03309124
:10173000B0032115310509F4DBC080910D02811140
:10174000D7C0682E712CEE24E394F12C082E02C031
:10175000EE0CFF1C0A94E2F7A9014E215F21452BF4
:1017600011F48F5FEECF90910C02930145E0220FB0
:10177000331F4A95E1F790FD12C08295880F80765D
:1017800080930201220F232F221F330B31952093C8
:101790000501815E809303011092060112C005E0ED
:1017A000369527950A95E1F7220F220F220F2093F5
:1017B000020110920501295F2093030183E08093C9
:1017C000060124E630E047E050E060E071E088E7A1
:1017D0000E941F34892B09F08BC080910C0280FD80
:1017E00023C0C30115E0880F991F1A95E1F7AC01DA
:1017F0004F545C4F04E610E020E230E060E488E7FC
:101800000E944634892B09F073C00E946026E09440
:10181000F0948091AF039091B003E822F922F09206
:10182000B003E092AF0364C080E2ECEEF1E0DF01D0
:101830001D928A95E9F7B5E0660C771CBA95E1F739
:10184000EAE4F1E0FEABEDAB66E471E0ADA9BEA960
:101850008D91BEABADABFB019191BF01A301490FCF
:10186000511D4F545C4F90E084519E4FFC01A7E006
:10187000CA2E9F01281B390BAA24A39401C0AA0CCD
:101880002A95EAF78A01B12CD801DD908D01DA2082
:101890002C2D2B192770922E022E000C330BBD2DF0
:1018A00001C0BB0F9A94EAF79B2E3195219531091F
:1018B0002770332701C0D6942A95EAF79D28D08057
:1018C0009D289082B39428E0B212DECFCA9431965C
:1018D0003FEFC312CECF8DA99EA98E54914009F03F
:1018E000B5CF04E610E020E230E04CEE51E086CFC8
:1018F00080911202882319F10E944E2000910E025D
:1019000010910F022091100230911102DC01CB01E5
:10191000801B910BA20BB30B8F3F9F4FAF4FBF4765
:1019200070F480911302882351F062E070E08EE839
:1019300091E00E94412D892B11F410921202411066
:1019400001C051100E9460260E94B6259091140299
:10195000891721F00E94B625809314028091A90373
:10196000843009F071CC83E08093E9008091E80035
:1019700082FF6ACC8091E80085FF22C00E94AB30D4
:1019800081111CC000E210E09E012F5F3F4F7901E2
:1019900008C08091F100D7018D937D01015011099C
:1019A00069F08091E80085FDF4CF8091E8008B77A5
:1019B0008093E8000E94AB30882399F391E001C046
:1019C00090E08091E8008B778093E800992309F4F8
:1019D0003BCCE0902F02F09030028E010F5F1F4F42
:1019E0008981E114F10461F08E3F09F09DC38A8181
:1019F000833008F42FC28550833008F095C32AC283
:101A00008B3009F411C288F5853009F483C0B8F42D
:101A1000823009F446C030F4813009F083C31A8261
:101A200089E0F8C2833009F466C0843009F07AC3D3
:101A30004C816B818A810E9447289D8396C38730A1
:101A400009F476C008F471C0883009F4B3C0893055
:101A500009F068C3609122027091230280912402F0
:101A6000909125020E94181A5FC3803109F421C1A8
:101A700060F48D3009F4C0C008F4BCC08E3009F4A5
:101A8000BFC08F3009F4E7C04DC3823109F416C1DD
:101A900008F412C1833109F43AC18E3F09F4DAC166
:101AA00041C38A81823009F459C3833051F08130B7
:101AB00009F038C30E944E209B838C837D836E8304
:101AC00033C380912D0290912E02892B09F42CC3EF
:101AD000809127028B83809128028C838091290238
:101AE0008D8380912A028E8380912B028F83809137
:101AF0002C02888719C38A81823009F013C36B8155
:101B00007C818D819E810E941A3586E290E00E9440
:101B1000A4340AC32D813E813227232732274C81EA
:101B20006B818A810E945827FFC20E948E27FCC2C7
:101B30008A818138B1F050F4803809F0F5C220E094
:101B40004B81609124028091230231C0823859F187
:101B5000833809F0E9C220E0409125026C818B8135
:101B600026C060E08B810E94E41B9B818091220251
:101B7000911111C08E7F8093220210922102BFEF3B
:101B8000E0E7F2E0B150E040F040E1F700C00000D3
:101B90000E94BE19C9C281608093220260E08695CE
:101BA0000E94E41BC1C28B8180932602BDC20E94A9
:101BB0000B1BBAC28A81813891F030F4803809F069
:101BC000B3C28091250226C2823889F0833809F099
:101BD000ABC2809123028B8380912402AFC180919C
:101BE000220280FF02C0869515C280E013C2809158
:101BF000260210C280E143C282E08A8389E20AC2DF
:101C0000EA80FB80FE24EF24FE24AC80B12C2DE181
:101C1000A216B10408F088C26801C70189529E4F1C
:101C20009601201B310B2A153B0508F07DC239E2D5
:101C3000E31632E0F30630F40E949034D601149695
:101C40008C9302C0F6011482FFEFEF1AFF0A2FEF08
:101C5000C21AD20AE2CF80912D0290912E02892BD6
:101C600009F462C2EA80FB80FE24EF24FE24CC80CB
:101C7000D12C3DE1C316D10408F056C25801C7016A
:101C800089529E4F9501201B310B2C153D0508F004
:101C90004BC2A9E2EA16A2E0FA0620F4F50164813B
:101CA0000E94A434FFEFEF1AFF0A2FEFA21AB20A24
:101CB000E6CF0E94B62638C284E0E1C1EA80FB800C
:101CC000FE24EF24FE24AC80B12C3DE1A316B10428
:101CD00008F02AC26801C70187969601201B310BC4
:101CE0002A153B0508F020C2A0EFEA16F10428F4FB
:101CF0000E949034F601848303C0D60114961C928E
:101D0000BFEFEB1AFB0AEFEFCE1ADE0AE4CFEA8050
:101D1000FB80FE24EF24FE24AC80B12CFDE1AF1645
:101D2000B10408F001C220EFE216F10408F0FCC192
:101D300080EF90E08E199F098A159B0508F4F4C185
:101D4000370137E2630E711C80912D0290912E02B3
:101D5000892B11F068015FC0E0FE0FC0C7018696B5
:101D60000E94903490E0982F88272D81822B811536
:101D70009C4531F48FEF8D8303C0C12CD12C03C05F
:101D8000CC24C394D12CC5018E0D9F1D450180FF2D
:101D90001BC0B1E08B1A910865E0462E512C4C0E09
:101DA0005D1E480C591CC3018A0D9B1D0E94903476
:101DB000F201208130E0322F2227282B21153C45CB
:101DC00019F48FEFD2018C93F801EC0DFD1D2FEF6C
:101DD000CF01801B910B8815990508F0BBCF84813A
:101DE00090E0982F88273581832B81159C4511F42D
:101DF000248325833296ECCFE0EFEE16F10428F42D
:101E0000D60114966C910E94A434BFEFEB1AFB0A22
:101E1000EFEFCE1ADE0AC70187969601201B310B21
:101E20002A153B0548F380C180912D0290912E0226
:101E3000892B09F479C1C8010E941B2DFFEF21EE07
:101E400034E0F15020403040E1F700C000000E9433
:101E500008206AC1EA818E2F90E08E30910508F04B
:101E600063C1FC01EA5AFF4F0C94143588E0EFE19E
:101E7000F1E0DE01919601900D928A95E1F780E202
:101E8000D8011D928A95E9F784E0898388E0FE01F4
:101E9000B196DE01159601900D928A95E1F744C145
:101EA00080E1898382E08A831B821C823DC18C8110
:101EB00090E0982F88272B81820F911D092E000C0E
:101EC000AA0BBB0B45E0880F991FAA1FBB1F4A95A1
:101ED000D1F7AC01BD01405E5F4F6F4F7F4F481798
:101EE00059076A077B0708F41FC18031E2E09E07AB
:101EF000A105B10508F018C14131F2E05F076105A5
:101F0000710520F040E152E060E070E0481B590BA1
:101F1000BC0160577E4FC8010E94773405C1FB8029
:101F2000EC8040E06E2D8F2D0E94282799838A83B4
:101F300041E06E2D8F2D0E9428279B838C83F4C057
:101F40002E813F813227232732274D816C818B815F
:101F50000E94F026E9C040E250E06FEF70E0C80157
:101F60000E943B3580912D028983EA821B8281E0A9
:101F70008C831D8284E0F9C03092300220922F02BF
:101F800082E390E090931F0280931E020E945A20E9
:101F900090931D0280931C02C7C0EF2899F1809195
:101FA000270284FBFF24F0F886958170F822809147
:101FB0001C0290911D020E943F2085369105E0F0A1
:101FC000FF20D1F00E945A2090931D0280931C02A2
:101FD00080911E0290911F02019790931F0280939F
:101FE0001E02892B79F41092300210922F02309247
:101FF0002E0220922D0206C082E390E090931F02F1
:1020000080931E0280912D02898380912F028A8302
:1020100080911E028B8388C010922E0210922D0296
:1020200083C040E250E06FEF70E0C8010E943B3592
:102030007BC08B81823029F1A8F48823C9F08130DC
:1020400009F072C08C812AE0D22E7E01B1E2EB0E43
:10205000F11CF7012D2D11922A95E9F7B7010E9485
:10206000DB263DC0833061F1843009F441C05CC09F
:1020700080E2D8011D928A95E9F788E089838A83F6
:1020800053C06C818AE0FE013596DE019196019085
:102090000D928A95E1F7683070F43AE0639FB001E1
:1020A0001124695C7E4F4AE050E0CE0181960E9487
:1020B000C83480E001C08FEF89830E94912834C02A
:1020C0008C819AE0D92E7E0191E2E90EF11CD701B4
:1020D000ED2D1D92EA95E9F7B7010E94C626898386
:1020E000F701DE01129601900D92DA94E1F71CC01F
:1020F0006C818AE0FE013596DE01919601900D9289
:102100008A95E1F7683070F4FAE06F9FB00111240E
:1021100069577E4F4AE050E0CE0181960E94C83454
:1021200080E001C08FEF8983C8010E941B2D8CC8FD
:1021300009BD19BD09B400FEFDCF8091D8008F7D87
:102140008093D8008091E00082608093E0008091CD
:10215000E00081FDFCCF0E94302581C886E290E03E
:102160000E9490341B821C821D828E83DDCF60E032
:1021700086E290E00E94A4340E948E270E94B62638
:1021800062E383E290E00E94A43462E584E290E09E
:102190000E94A43469E985E290E00E94A4340C9482
:1021A0002D082F923F924F925F926F927F928F9263
:1021B0009F92AF92BF92CF92DF92EF92FF920F93D6
:1021C0001F93CF93DF93CDB7DEB769970FB6F8941F
:1021D000DEBF0FBECDBFFC018081918123813481A0
:1021E000232B31F09F3F31F491E08F3F19F403C06E
:1021F00091E001C090E090FF02C00C9435196F018E
:1022000085E0DE01559601900D928A95E1F7D601A1
:1022100012962C918D899E89222349F00E94A92132
:10222000182F682F8D899E890E94502203C00E941A
:102230001F22182F6D897E89812F0E9475288C019D
:10224000F6018281811106C0D60112964C9141118E
:1022500041C0C1C0809111018F3FB1F363E3E62E0D
:1022600062E0F62EA12CB12C992493948091110157
:10227000082E000C990B8A159B0534F3F701868113
:10228000882309F1818592850817190739F480910F
:1022900031029091320208171907A9F0D7011F9651
:1022A0009C921F971C961C930E931B9751968C9192
:1022B000811103C0C7010E94C225C70106960E9472
:1022C000E32510925503BFEFAB1ABB0AE6E1EE0E11
:1022D000F11CCCCFC80182519F45409708F094C0B3
:1022E0008FEF93E00E94903481117FC05EEEF52E57
:1022F000F00E07ED11E0FF2071F00115F4E01F076B
:1023000009F473C0C8010E949034811101C0FA948D
:102310000F5F1F4FF0CF19821A821B821C82AA24E2
:10232000AA9478012FEFE21AF20AC8010E949034B1
:1023300089831A82882309F458C0813009F046C085
:10234000480132E0830E911CC7010E9490348A83B9
:10235000882309F44AC09FEF980F933060F4780106
:1023600043E0E40EF11CC4010E9490348B83811180
:102370002DC08701D6CF843011F07401FACFC4018B
:102380000E949034B82E780154E0E50EF11CC8018B
:1023900003960E949034BB2041F1882331F1282F0D
:1023A00030E021503109A29EA001A39E500D1124BE
:1023B0008B2D90E00197840F951F0197D0F2AFE924
:1023C000BFE01197F1F700C00000F7CFCE010196F2
:1023D0000E94C51DCECF0031FFE51F0709F03CC7A5
:1023E00081E00E9488220E94D12C80915303877043
:1023F00009F43BC7D60112968C91882309F435C79E
:1024000082E00E94AD2231C70031BFE51B0711F405
:1024100081E005C00131EFE51E0721F482E00E9452
:10242000CA22E1CFC80197558F3F910511F008F0FE
:102430004AC020911101022E000C330B28173907D6
:1024400014F48093110126E1289F5001299FB00CBC
:102450001124F501ED5CFD4F7F01408BD6011296F2
:102460009C918681992329F1128701878F5F86834A
:102470000E945A20F70196878587809159038783A8
:102480009091550380915603892B80870190F081AC
:10249000E02DC501875C9D4F309731F0D7015496F0
:1024A0006D917C91559709951093320200933102FA
:1024B0000AC0882341F08189882329F0C501875CFF
:1024C0009D4F0E94E325073FFCE51F0749F4D60115
:1024D00012968C91882321F181E08093120187C1AB
:1024E000083FBCE51B0771F4F60182818823C1F027
:1024F000109212011092F3021092F20281E00E94F7
:10250000402675C1093FFCE51F0751F4D60112961C
:102510008C91882329F0809112018823E9F2E8CF79
:102520004090120141102DC0033FBCE51B0709F488
:1025300046C1A8F4083DFCE51F0709F437C1093D71
:102540002CE5120709F44DC1073D3CE5130709F0DE
:102550004EC106E221EE41EE67ED7CE52CC1053F60
:102560004CE5140709F437C108F42FC1063F8CE588
:10257000180709F03CC107E225EE46EE66EF7CE560
:102580001AC11092F6021092F502612C35E0532E1A
:1025900088248394912C33243394A090F502B09036
:1025A000F602F8E0AF16B10408F0CCC05A9CF00176
:1025B0005B9CF00D1124E655FE4FBE01655F7F4F19
:1025C00080810E94C626892B11F0712CB0C0FE01BB
:1025D0003B9680E090E022242A94282F419151914B
:1025E0004115510551F00417150709F4282E0196DD
:1025F0008430910591F724E002C0823030F39FEFE0
:10260000291619F3D60112967C90772009F444C05C
:102610005A9CC0015B9C900D1124FC01E655FE4FB5
:102620007F01C40101C0880F2A94EAF79481892BA5
:102630008483A40102C0440F551F2A95E2F79A0132
:102640002150310990E08F772817390709F06EC0C3
:1026500080E00E944026D70114968C9114978068E0
:1026600014968C93149712968D919C9113970097C2
:1026700019F00E948E1E0DC0BE016F5F7F4F8091CA
:10268000F5020E94C626892B21F489859A850E942D
:10269000CA2A3092F4024BC0F40102C0EE0FFF1FB1
:1026A0002A95E2F79F01215031095A9CF0015B9C69
:1026B000F00D1124E655FE4F848190E08F772817A6
:1026C0003907A1F482819381009719F00E94781E46
:1026D0000DC0BE016F5F7F4F8091F5020E94C6263C
:1026E000892B21F489859A850E94412A5A9CF00100
:1026F0005B9CF00D1124E655FE4F9481292F30E0AC
:10270000022C02C0359527950A94E2F720FF5DCF91
:10271000940101C0220F2A94EAF7822F8095892321
:10272000848387FF52CF803809F41482742C672881
:102730008091F5029091F60201969093F6028093B3
:10274000F5022BCF8091F402882359F00E945A2081
:102750009093F3028093F2021092F402611045CE3E
:10276000E3CE611006C081E00E9440260E942E2622
:10277000DBCED60112968C91882309F436CE0E94C6
:102780005A209093F3028093F202E091F102E73035
:1027900008F02BCE81E08E0F8093F102F0E0EE0F77
:1027A000FF1FED51FD4F118300831FCE07E225EE81
:1027B00045EE68ED7CE5C6010E94CE2916CE06E204
:1027C00021EE40EE63EF7CE5F6CF07E225EE44EE26
:1027D00064EF7CE5F0CF06E221EE42EE65EF7CE5AA
:1027E000EACF08E221E045EE69ED7CE5E4CFF601B1
:1027F0008281882309F43EC11092F7020230FCE581
:102800001F0708F421C106312CE5120730F0C8017A
:102810008A5F9C45099708F017C10E94A9209093F0
:10282000D3018093D20100313CE5130709F4C3C002
:1028300008F041C008305CE5150709F49AC0F0F4CF
:1028400004309CE5190709F487C068F40230BCE540
:102850001B0709F477C003301C4509F0E5C08091DF
:10286000D201826076C00630FCE51F0709F46EC015
:1028700008F07BC08091D20188606BC00C303CE5D1
:10288000130709F485C068F40A305CE5150709F4FC
:1028900074C008F079C00E9430258091D201806810
:1028A00058C00E309CE5190709F476C008F07FC0C7
:1028B0008091D2018BC00B3FBCE51B0709F44FC0D0
:1028C00018F50331FCE51F0709F47DC078F40131E8
:1028D0003CE5130709F473C002311C4509F0A4C09C
:1028E0000E9430258091D2018F7733C005315CE59D
:1028F000150709F472C008F486C00A3F1C4509F0A8
:1029000093C08091D3013EC00F3FACE51A0709F494
:102910005FC058F40D3FECE51E0709F444C008F40D
:102920003FC08091D30182602DC001302DE5120798
:1029300009F475C008F45DC002301D4509F074C08B
:1029400060E06EC08091D201816003C08091D201AD
:1029500080618093D20168C08091D20111C08091C2
:10296000D30182608093D3015FC08091D2018062E5
:10297000F0CF8091D2018064ECCF8091D201886049
:102980008460E7CF8160EECF8091D2018E7FE1CF6E
:102990008091D2018D7FDDCF8091D201877FD9CF09
:1029A0008091D30118C08091D3018D7FDBCF8091BE
:1029B000D2018F7ECECF8091D2018F7DCACF809100
:1029C000D2018F7BC6CF8091D201877F8B7FC1CF11
:1029D0008091D3018D7F8E7FC5CF8091D20182FB04
:1029E000222720F991E0922790FB82F990FB83F94E
:1029F000B0CF8091D301982F909591708E7F892BC5
:102A000090FB81F9AFCF0E9430258091D20187FBE6
:102A1000222720F991E0922790FB87F99ACF61E075
:102A20008EE090E00E94A4346091D2011091D30115
:102A300084E090E00E94A434612F82E290E00E9442
:102A4000A4340E943025D1CC809156030631FCE598
:102A50001F0741F58A7A91E009F490E09093F8021B
:102A6000882311F065E301C069E28CEF92E00E94D7
:102A70008F2015C006311C4509F00EC18091F80267
:102A8000882309F4F0C385E3ECEFF2E09281891327
:102A900001C01282319653E0E230F507B9F70E9487
:102AA0003721A3CC82720B3C9CE5190709F4A7C01F
:102AB000B8F5063CBCE51B0709F48DC0D8F4033C0F
:102AC000FCE51F0709F47DC030F4023C3CE5130728
:102AD00009F452C0B0C0043C4CE5140709F476C0B8
:102AE000053C5CE5150709F0A6C042ED5BE16BED26
:102AF0007BE18EC0083C9CE5190709F476C008F418
:102B00006FC0093CBCE51B0709F474C00A3CECE546
:102B10001E0709F090C04EEA5BE162EA7BE178C0F3
:102B2000003DFCE51F0709F47EC0A0F40D3C3CE528
:102B3000130709F470C008F467C00E3C5CE5150784
:102B400009F46EC00F3C8CE5180709F074C068E00A
:102B500086E06EC0043D9CE5190709F467C008F4DF
:102B600044CC053DBCE51B0709F43FCC0D35EDE534
:102B70001E0709F43ACC5FC08091220280FF1BC07F
:102B80008E7F8093220260912202709123028091B5
:102B90002402909125020E94181A10922102FFEF40
:102BA00000E712E0F15000401040E1F700C00000E3
:102BB0000E94BE191ACC81608093220261E0869542
:102BC0002CC04FE15CE168E27CE122C048E25CE1BC
:102BD0006FE17CE11DC04BED5BE162ED7BE118C074
:102BE0004AEB5BE166EC7BE113C046EC5BE16AEB30
:102BF0007BE10EC042EA5BE16EEA7BE109C04AE29A
:102C00005AE16BE37AE104C04BE35AE16AE27AE10C
:102C10000E94F928EACB61E081E00E94E41BE5CB49
:102C200065E082E005C06EE089E002C068E18FE007
:102C30000E94E728DACB0A352DE5120741F150F45E
:102C400001154CE51407A9F00E3D1C4529F50E941D
:102C5000BA20CBCB0B358DE51807D9F00C351D45C7
:102C6000D9F48091D30182FB882780F991E08927EC
:102C700011C00E943025AFEFB4E3ECE0A150B040AA
:102C8000E040E1F700C000000E940820AECB81E0E8
:102C900001C080E00E948221D60112968C91129789
:102CA0000D911C91882349F0C8010E94A921F82E9A
:102CB000682FC8010E94502204C0C8010E941F2230
:102CC000F82EB8018F2D0E94491C8C01A82EF60108
:102CD000B280F580F2949FE0F922809153038770CF
:102CE00099F0BB2089F0812F807F803421F080E231
:102CF000800F883048F082E00E94AD22809153031B
:102D00008770EE24E3948111E12C912E92948FE050
:102D10009822892D90E08C30910508F07DC2FC014D
:102D2000EC59FF4F0C941435812F807F1F7088233E
:102D300011F01295107FBB20B9F0112309F452C293
:102D400080E2800F883010F0A11006C080915603F9
:102D5000182B1093560305C080915503182B109320
:102D600055030E9437213EC2802F0E94EC3211236E
:102D700009F452C2005E083010F0A11004C0812F87
:102D80000E94302106C0109580915503182310939E
:102D900055030E94372140C2812F807F1F708032EF
:102DA00011F01295107FAA2029F0F1E0AF1609F476
:102DB00043C04EC0BB2051F1FF2011F101E0F012E1
:102DC00013C08091D30182FD27C280915903182B33
:102DD000181709F421C20E945A2090935803809337
:102DE00057031093590318C225E0F21209C00E943C
:102DF0002521809150031817C1F11093500335C05D
:102E000080915903812B0E94DB3206C2FF2051F0D2
:102E100031E0F3120DC080915603812309F4FCC107
:102E20000E94A3210E942521812F0E94E532F4C136
:102E300045E0F412F7CFF0C1BB2029F055E05F1553
:102E400008F4EAC112C084E08F1508F4E5C1ECCFA4
:102E5000BB2069F0FF2049F0D60115968C9115979B
:102E600080FFC0C18F7015968C93812FCCCFFF202F
:102E7000D9F2093341F4BFEFE7EEF3E0B150E0409F
:102E8000F040E1F7C4C18FE39CE90197F1F7BFC1BE
:102E9000812F86958695837019F0813059F0BCC1D9
:102EA000BB2019F0C801937002C080E090E00E943E
:102EB000A025B8C1BB2019F0C801937002C080E002
:102EC00090E00E948A25AEC1812F837009F069C00D
:102ED000B110A6C1902F929596959770990F990F62
:102EE000802F8F70882E912CA12CB12C092E04C01C
:102EF000880C991CAA1CBB1C0A94D2F704FF12C0B0
:102F00004FE050E060E070E004C0440F551F661FC2
:102F1000771F9A95D2F7DB01CA0180959095A0950D
:102F2000B09503C080E090E0DC0116951695412F26
:102F30004370423019F1C8F400915A0310915B03B9
:102F400020915C0330915D03413059F08829992923
:102F5000AA29BB29BC01CD016023712382239323BD
:102F60000AC0802A912AA22AB32ABC01CD0168296D
:102F700079298A299B290E94012352C188299929EC
:102F8000AA29BB2900915A0310915B0320915C038D
:102F900030915D03BC01CD01602771278227932703
:102FA000EACFBB2019F0812F817001C0869588235C
:102FB00009F436C1902F929596959770990F990FB5
:102FC000802F8F70882E912CA12CB12C092E04C03B
:102FD000880C991CAA1CBB1C0A94D2F704FF12C0CF
:102FE0004FE050E060E070E004C0440F551F661FE2
:102FF000771F9A95D2F7DB01CA0180959095A0952D
:10300000B09503C080E090E0DC0116951695412F45
:1030100043704230D9F068F50091AA031091AB03D8
:103020002091AC033091AD03413059F088299929A2
:10303000AA29BB29BC01CD016023712382239323DC
:103040001EC0802A912AA22AB32A13C0882999294E
:10305000AA29BB290091AA031091AB032091AC03CC
:103060003091AD03BC01CD016027712782279327E2
:1030700006C0BC01CD01682979298A299B290E94B3
:103080007E22CEC01F70BB2039F0812F0E94CA2241
:10309000802F0E94DB32C4C0802F0E94E532812F36
:1030A0000E948822BDC0802F92EFA91609F442C069
:1030B0009A1538F0A0EFAA1661F0B1EFAB1699F1AE
:1030C0008CC0E3EFAE16E9F1F4EFAF1609F450C08F
:1030D00084C0BB2019F104E00F1508F49DC01F71D6
:1030E00081E090E0A0E0B0E0AC01BD0104C0440F7D
:1030F000551F661F771F1A95D2F78091AA039091EA
:10310000AB03A091AC03B091AD038A019B010827EA
:1031100019272A273B27C901B80127C025E02F1509
:1031200008F47AC0DCCFBB2039F0812F8F710E9468
:10313000CA2272C0BB20C9F3812F8F710E948822DE
:103140006BC0BB2079F01F7181E090E0A0E0B0E09F
:10315000BC01CD0104C0660F771F881F991F1A9507
:10316000D2F703C060E070E0CB010E947E2254C021
:10317000BB20D9F0809150030E94302180915303ED
:103180008770843039F40E949C21812F8F710E94B6
:10319000882260C034E03F1508F45CC01F71812FA5
:1031A0000E94CA2263E0812F11C090915603809142
:1031B0005003892B8093560344E04F1550F40E942E
:1031C0009C210E94A32164E0812F8F710E94EB2239
:1031D00041C081E00E94AD223DC0BB2039F0FF20FC
:1031E00009F4A3CF802F0E941D3316C0FF2009F4DD
:1031F000A3CF893341F45FEF87EE93E051508040D5
:103200009040E1F704C0AFE3BCE91197F1F700C0CB
:103210000000802F0E94EC3288EF890D843010F47A
:103220000E94B625EE2009F18091530380FD1DC058
:10323000F60112828595859585950E94CA22C60160
:103240000E94D110809153038595859585950E94A4
:1032500088220BC0E12CE4CF01312FE5120709F0E1
:10326000E1C882E0BEC889E20FCC69960FB6F89437
:10327000DEBF0FBECDBFDF91CF911F910F91FF90A9
:10328000EF90DF90CF90BF90AF909F908F907F9006
:103290006F905F904F903F902F9008959091D20142
:1032A00092FF0DC0282F2871283019F4877F846081
:1032B00006C0282F2471243011F48B7F886093FF7F
:1032C0000DC0282F2871283119F4877E846106C02B
:1032D000282F2471243111F48B7E88612091D30131
:1032E00020FF0DC0382F3871383019F4877F816086
:1032F00006C0382F3171313011F48E7F886021FF84
:103300000DC0282F2871283119F4877E816106C0ED
:10331000282F2171213111F48E7E886194FD877EE2
:1033200008959C013A9521153F4138F5DC01AA2703
:10333000B270AC01442754709C012227387094FF6E
:103340000FC090FF02C080E101C080E0AB2B09F00C
:103350008062452B09F08064232B69F080680BC0E4
:10336000892F8170AB2B09F08260452B09F08460B6
:10337000232B09F08860FB010994089580912202B3
:1033800080FF0AC0849A81B38F7E91B390612FB77A
:10339000F894E2E6F3E00BC0E2E6F3E0118210827B
:1033A0001282339633E0EA37F307C1F7EBCF33E00D
:1033B000EA37F30789F0319148E091BB000000C083
:1033C00037FF81BB330F000000C000C000C081BBCD
:1033D00000C04A9591F7EBCF2FBF8FE594E001979E
:1033E000F1F700C0000008959091220290FF0CC0F8
:1033F000E2E6F3E0818360834283339693E0EA3729
:10340000F907C1F70C94BE19089580912202282F64
:10341000269530E02115310519F48170826005C0D0
:103420002931310524F08170806380932202089550
:10343000CF92DF92EF92FF926B017C010E94051AFE
:10344000B701A60188E090E0FF90EF90DF90CF9069
:103450000C94B63480912602882319F08150809311
:1034600026026091220270912302809124029091A1
:1034700025020C94181A80912602833018F48F5F6D
:10348000809326026091220270912302809124028F
:10349000909125020C94181AE2E2F2E083E0808316
:1034A00011828FEF82838383148260817181828194
:1034B00093810C94181AAF92BF92CF92DF92EF9241
:1034C000FF920F931F93CF93DF93E82EF62EE9011F
:1034D000E42FF0E0611106C0E05BFB4FE4914E2F5A
:1034E0002E2F71C0062F10E0E05BFB4F4491F42FAC
:1034F000C42ED12C26E0829FC00111242FEF30E092
:10350000B9010E94EC345BEA5603C001579F900D4D
:1035100011248E0D911D8E0D911D582F550F580F92
:10352000D901A01BB10BAC9DC001AD9D900DBC9D00
:10353000900D1124E92FF59ED0011124AB2FBB274C
:103540007901EA1AFB0AEC9CD001ED9CB00DFC9CC1
:10355000B00D11245901A51AB108A09E7001A19EB9
:10356000F00CB09EF00C1124EF2CFF242E193F0913
:103570002C9D80012D9D100D3C9D100D1124212F9F
:103580006230710591F048F461157105E1F0613028
:103590007105B9F4242F4B2F16C06430710569F002
:1035A00040F06630710579F00CC0242F492FE12FCF
:1035B0000AC0492FEF2F2B2F06C0292FE42F412FB0
:1035C00002C0292FEB2F49832883EA83DF91CF9113
:1035D0001F910F91FF90EF90DF90CF90BF90AF9031
:1035E0000895CF93DF9300D01F92CDB7DEB79091AF
:1035F000220290FF0AC09E012F5F3F4F0E945B1A7C
:103600004B8169818A810E94F4190F900F900F906D
:10361000DF91CF9108957F928F929F92AF92BF9248
:10362000CF92DF92EF92FF920F931F93CF93DF938E
:1036300000D01F92CDB7DEB7182FD62E042FC22E82
:103640009091220290FF6DC0E92FE695AE2FB0E079
:10365000A25BBE4F8C91809320029E7F923061F4DA
:103660009E012F5F3F4F812F0E945B1A4B81698122
:103670008A810E94F41943C0823019F40091250216
:103680003EC0863019F41091230239C08930D9F335
:103690008F30A9F5EF502E2F2170722EE695F0E0B5
:1036A000E05BFA4F8590949032E6A32E33E0B32E80
:1036B000E12CF12C99248E9CC0018F9C900D9E9C36
:1036C000900D112423E0969587952A95E1F77110C6
:1036D00002C0810F03C0212F281B822F9501402F8C
:1036E0006D2D0E945B1A8FEFE81AF80A23E0A20EF4
:1036F000B11C88E0E816F104F1F60E94BE1910939F
:103700002302D092240200932502CC2051F0609134
:1037100022027091230280912402909125020E943E
:10372000181A0F900F900F90DF91CF911F910F916A
:10373000FF90EF90DF90CF90BF90AF909F908F90D1
:103740007F900895E2E2F2E0438128E0421B08F412
:1037500040E021E0628181810C940B1BE2E2F2E007
:10376000438128E0420F08F44FEF21E0628181811C
:103770000C940B1BE2E2F2E0628128E0621B08F489
:1037800060E021E0438181810C940B1BE2E2F2E0D6
:10379000628128E0620F08F46FEF21E043818181AC
:1037A0000C940B1BE2E2F2E0818121E04381628113
:1037B00088500C940B1BE2E2F2E0818121E043810E
:1037C0006281885F0C940B1B9091220290FF36C09F
:1037D0009170811102C0926006C0893110F090632F
:1037E00002C0880F982B90932202662351F06091BB
:1037F00022027091230280912402909125020E945E
:10380000181A60912202669570E04BE050E083E167
:1038100091E00E942135892B19F01092210202C0FB
:103820000E94162C81E08093E10120E04091250266
:1038300060912402809123020C940B1B08958091C7
:1038400022028695815009F488E161E00C94E41B22
:103850008091220286958F5F893108F081E061E0D6
:103860000C94E41BF894E82FE295EF70F0E031A19E
:10387000282F2F7081E090E001C0880F2A95EAF789
:10388000982F9095932391A392A1892B82A378944A
:103890000895CF93DF930E947528EC01823891053B
:1038A00059F1A0F48133910509F473C040F48932D1
:1038B000910509F467C08A9709F472C084C0853302
:1038C000910509F458C0C997B9F07DC0833E9105B0
:1038D00071F138F4803E9105B1F0823E910511F10D
:1038E00072C0863E9105B9F1873E9105C9F1843ECB
:1038F000910509F068C024C08091D20180FD5DC0AF
:1039000081FD5BC060C08091D20180FD50C080917C
:10391000D30180FF36C18091D20184FD30C1C3EE56
:10392000D0E02FC18091D20182FF2BC1F4CF8091D2
:10393000D20182FD3FC08091D30180FD3EC0EBCF1C
:103940008091D30181FF1DC18091D20184FD17C1F7
:10395000C7EED0E016C18091D20183FF12C1F4CF2F
:103960008091D20183FD2CC08091D30181FFECCFE7
:10397000C4EED0E006C18091D20185FF02C1C9E248
:10398000D0E0FFC08091D20185FFFBC0C5E3D0E04D
:10399000F8C08091D20186FFF4C0CAE2D0E0F1C045
:1039A0008091D20186FFEDC0C1E3D0E0EAC0C9E357
:1039B000D0E0E7C0C2EED0E0E4C0C0EED0E0E1C0AD
:1039C000C6EED0E0DEC0C11582E5D80708F066C0BB
:1039D000C11591E5D90728F0DC2FCC27C16FD06A3B
:1039E000D0C0C83ED10560F5C03ED10508F0C9C0C1
:1039F000C83AD105B0F4C53AD10540F0C55AD0E077
:103A0000CA58DE4FC881D0E0D064BBC0C130D105F8
:103A100009F4B7C008F4B3C0C430D10508F4AFC08E
:103A2000B0C0CF3BD10508F0AAC0C85AD0E0CC0F37
:103A3000DD1FC758DE4F0990D881C02DD464A1C0C6
:103A4000C11520E5D207E0F0CE0174E09695879588
:103A50007A95E1F783709C2F937021E030E002C0EB
:103A6000220F331F9A95E2F73C68382BCF70C6952A
:103A7000C69580E2C89FE0011124C22BD32B81C0E0
:103A8000C11580E4D80718F0DF70D06A7AC0CE0183
:103A90009A9581159F4108F474C071C0C11586E5DF
:103AA000D807F0F5C11595E5D90750F08C2F0E9485
:103AB0004E198F71C82FD0E0DC2FCC27D06261C0A7
:103AC000C11524E5D20728F0DC2FCC27C46FD06ABB
:103AD00058C09E01237033278C2F86958695C1157B
:103AE000D34578F4C1E0D0E002C0CC0FDD1F2A95A9
:103AF000E2F720E2829FC0011124C82BD92BDC6899
:103B000040C0C1E0D0E002C0CC0FDD1F2A95E2F733
:103B100020E2829FC0011124C82BD92BDA6831C062
:103B2000C1152AE5D207E8F4C11589E5D80780F068
:103B30008C2F8F700E944E1994E0D695C7959A9558
:103B4000E1F7CF70D0E0DC2FCC27D069C82B19C0AB
:103B5000C11598E5D90798F0DC2FCC27C06FD06A43
:103B600010C0CE0190568115904248F48D2F8F7170
:103B70000E944E19DD27D0628F71D82B02C0C0E0A1
:103B8000D0E0CE01DF91CF910895AF92BF92CF9256
:103B9000DF92EF92FF920F931F93CF93DF93EC018D
:103BA0008AE0A82E2881222309F497C0213009F049
:103BB00041C08981813039F48E010E5F1F4F8A81A7
:103BC0000E94763308C0823041F48E010E5F1F4F91
:103BD0008A810E941D33E8017EC0833039F48E0152
:103BE0000E5F1F4F8A810E94EC32F5CF843011F0B6
:103BF000219671C02A81229680E090E030E0205327
:103C000031092A30310558F4A89EA001A99E500D13
:103C10001124C901840F951F21962881EFCF0097A9
:103C200009F459C0EFE9FFE03197F1F700C0000057
:103C30000197F5CFE22FF0E0E053FC4FB490822FD4
:103C400086958695869590E0FC01E054FC4FE490C3
:103C50002770F12C022E02C0F594E7940A94E2F743
:103C6000F1E0EF22FF24FC01E055FC4FC490D12C81
:103C7000022E02C0D594C7940A94E2F731E0C32221
:103C8000DD24FC01E056FC4F049110E002C01595C4
:103C900007952A95E2F701701127E114F10419F054
:103CA00081EE0E941D33C114D10419F086EE0E94EA
:103CB0001D338B2D0E947633CD2819F086EE0E949D
:103CC000EC32EF2819F081EE0E94EC32012B19F052
:103CD0008CE20E947633219665CFDF91CF911F91C0
:103CE0000F91FF90EF90DF90CF90BF90AF9008952D
:103CF000CF93DF93EC010E94EC32CE01805E9109FC
:103D0000089710F0209719F465EE72E302C066EC94
:103D100072E3CE01DF91CF910C949119CF93DF9391
:103D2000EC01805E9109089710F0209719F46BED73
:103D300072E302C061ED72E3CE010E9491198C2FF3
:103D4000DF91CF910C941D338F929F92AF92BF92CF
:103D5000CF92DF92EF92FF920F931F93CF93DF9357
:103D6000C7E2D1E004ED11E02DE2C22E21E0D22E17
:103D70005801912CEE24E394F12CBE018881F89433
:103D8000E82FE295EF70F0E021A18F70A70102C04B
:103D9000440F551F8A95E2F7CA01922F982B91A3E1
:103DA00092A18095892382A3789400C0EDE2F1E08E
:103DB00020E030E0812C4191842F82958F7090E03B
:103DC000DC0190968C9190E04F7002C0959587959C
:103DD0004A95E2F780FD07C08E2D022E01C0880FA4
:103DE0000A94EAF701C080E0882A2F5F3F4F253010
:103DF000310509F72196FB0180810E94321CF0EA0F
:103E0000FA95F1F7D5018C91881619F08C9281E022
:103E100001C080E0982ABFEFAB1ABB0ACC16DD06C2
:103E200009F0ABCF992049F081E08093FB020E941A
:103E30005A209093FA028093F9028091FB02882322
:103E4000A9F08091F9029091FA020E943F20069712
:103E500068F0E7E2F2E08AED91E0D8012D918D0162
:103E600021938A179B07C9F71092FB0280911101D9
:103E70008F3F41F1F12C96E1E92E1AC0E09EF0014E
:103E8000E19EF00D1124ED5CFD4FC288D388C11472
:103E9000D10419F488ECC82ED12CE09EE001E19EFB
:103EA000D00D1124CD5CDD4F8E81811110C0F394B3
:103EB0000F2D10E080911101082E000C990B801736
:103EC0009107E4F680911201811118C027C08D85F9
:103ED0009E850E943F20C816D90648F7898981111E
:103EE00003C0CE010E94C225E09EC001E19E900D5C
:103EF0001124875C9D4F0E94E325D9CF8091F20267
:103F00009091F302009751F00E943F20893C910567
:103F100028F081E00E9440260E942E26892DDF9104
:103F2000CF911F910F91FF90EF90DF90CF90BF90B6
:103F3000AF909F908F900895089580919503089574
:103F400080E00895CF93DF9300D01F92CDB7DEB706
:103F50009091A903943011F589837B836A839093B0
:103F6000E9008FEF9091E800815095FD06C095ED36
:103F70009A95F1F700008111F5CF8091E80085FF57
:103F80000DC040E050E063E070E0CE0101960E9479
:103F9000EF2C8091E8008E778093E8000F900F90CF
:103FA0000F90DF91CF910895BC0184E00C94A21F83
:103FB000BC0183E00C94A21FCF93DF9321E02093F8
:103FC000E9002FEF3091E800215035FD06C035EDB6
:103FD0003A95F1F700002111F5CF2091E80025FF77
:103FE00014C0EC0140E050E068E070E00E94EF2C6B
:103FF0008091E8008E778093E80088E0FE01A6E9D2
:10400000B3E001900D928A95E1F7DF91CF91089589
:1040100087E797E790930108809300089AE088E18A
:104020000FB6F894A895809360000FBE909360003F
:10403000FFCF78941F920F920FB60F9211248F9397
:104040009F93AF93BF9380915E0390915F03A09184
:104050006003B09161030196A11DB11D80935E03C1
:1040600090935F03A0936003B0936103BF91AF91FE
:104070009F918F910F900FBE0F901F9018959C01EC
:104080004FB7F89480915E0390915F03A091600315
:10409000B09161034FBF821B930B08952FB7F89423
:1040A00060915E0370915F03809160039091610362
:1040B0002FBF08952FB7F89480915E0390915F030E
:1040C000A0916003B09161032FBF08951F920F92DA
:1040D0000FB60F9211248F939F93AF93BF9380914C
:1040E000DB01811113C080915E0390915F03A09169
:1040F0006003B09161034196A11DB11D80935E03E1
:1041000090935F03A0936003B0936103BF91AF915D
:104110009F918F910F900FBE0F901F9018959C014B
:10412000FC0132969FEF80E04191461789F09F3F56
:1041300019F4411101C0982F8F5F8630A9F79F3F76
:1041400039F0F901E90FF11D97FDFA9562830895A1
:104150000895CF9384E090E00E949034C82F82E2CB
:1041600090E00E9490342C2F30E0A901582BCA0116
:10417000CF9108956AEE7EEF80E090E00E94C23415
:1041800060E082E090E00E94A43460E083E090E090
:104190000E94A43410925A0310925B0310925C03A5
:1041A00010925D0360E084E090E00E94A43460E03F
:1041B00082E290E00E94A43460E085E090E00E94FA
:1041C000A43460E086E090E00E94A4346FEF87E0C2
:1041D00090E00E94A43440E050E0BA0188E090E012
:1041E0000E94B63460E08DE090E00E94A43440E08C
:1041F00050E0BA0188E190E00E94B63460E087E1C7
:1042000090E00E94A43440E050E0BA018CE190E0DC
:104210000E94B63460E070E080E290E00E94C23418
:1042200040E050E0BA0188E190E00E94B63440E0FE
:1042300050E0BA018FE090E00E94B63440E050E0D8
:10424000BA0183E190E00C94B6348091590388233D
:1042500031F01092590310925803109257030895A9
:1042600080959091560389238093560308959091E9
:10427000560380915503892B90915403892B809389
:10428000FC0280915903882311F10E945A20209149
:10429000570330915803821B930B8838934110F0D9
:1042A0000E9425219091FC0280915903892B8093D3
:1042B000FC02EEEFF2E097E080E0915029F02191CE
:1042C0002223D9F38F5FF9CF81110E942521E0913C
:1042D000EA01F091EB01309731F00280F381E02D9B
:1042E0008CEF92E00994089580E090E00E94A02570
:1042F00080E090E00E948A251092550310925403AA
:104300000C943721CF93C091D301C2FB992790F928
:10431000981781F080FBC2F9C093D3016091D2015C
:1043200084E090E00E94A4346C2F82E290E0CF9170
:104330000C94A434CF910895109253031092520319
:1043400010925103089580915003811110925003EF
:104350000895BF92CF92DF92EF92FF920F931F9337
:10436000CF93DF938C01C090AA03D090AB03E09071
:10437000AC03F090AD0380915A0390915B03A09140
:104380005C03B0915D03C82AD92AEA2AFB2ACFE14F
:10439000D0E0D701C6010C2E04C0B695A79597951D
:1043A00087950A94D2F780FD04C0219790F7B12C2D
:1043B00007C0BC2EB8018C2F0E94491C0197A9F39D
:1043C0008B2DDF91CF911F910F91FF90EF90DF9098
:1043D000CF90BF900895CF93DF93EC010E94A92165
:1043E000BE010E94491CDF91CF9108950E94EB21EC
:1043F000292F2F70E92FE295EF704E2F50E0FA0130
:104400003297EE30F105B8F4E059FF4F0C941435B3
:10441000803F99F018F4883E70F40FC0843F59F43F
:104420000CC0883E50F0813F31F407C0822F869542
:1044300086958695089580E0089581E008959E3FD1
:1044400069F1292F220F220F920F890F682F66958D
:1044500066956695982F977085E0689FB001112446
:1044600040E050E080E0FB01E40FF51FE45CFC4F0E
:10447000208130E0092E02C0369527950A94E2F794
:1044800021703327042E01C0220F0A94EAF7822BF1
:104490004F5F5F4F4530510531F7089580E0089533
:1044A0009E3F59F1292F220F220F920F890FE82FDB
:1044B000E695E695E695877051E001C0550F8A951F
:1044C000EAF785E0E89FF0011124E45CFC4F20E06E
:1044D00030E070E04081CB01022E02C096958795B6
:1044E0000A94E2F78170819584278523842781933C
:1044F0002F5F3F4F2530310569F708956093AA0378
:104500007093AB038093AC039093AD030C94742130
:104510000F931F9341E050E060E070E004C0440F4F
:10452000551F661F771F8A95D2F740955095609565
:1045300070958091AA039091AB03A091AC03B091C8
:10454000AD038A019B01082319232A233B23C901B8
:10455000B8011F910F910C947E22209153038095F6
:10456000822380935303982F977041F430E0482FB3
:10457000082E000C550B2417350721F49091D30118
:1045800092FF07C08595859585950E9488220C9499
:104590009C2108950F931F9341E050E060E070E08C
:1045A00004C0440F551F661F771F8A95D2F780916C
:1045B000AA039091AB03A091AC03B091AD038A0123
:1045C0009B01082B192B2A2B3B2BC901B8011F91EA
:1045D0000F910C947E229091D30192FD10C098E02F
:1045E000899F90011124262B209353030E94CA22F5
:1045F0000E945A20909352038093510308950C9483
:10460000CA2260935A0370935B0380935C03909378
:104610005D030C94742180913B0390910A038917E8
:1046200019F08F5F8770FBCF08950F931F93CF937F
:10463000DF938091090382958F7009F05DC08091AE
:104640000603882309F458C080913B0310910A03A4
:104650006091040370910503C0910703D091080392
:1046600091E06F3F09F090E0292F06E0811709F4EF
:1046700043C0209721F07F3F21F030E003C031E0BC
:1046800001C0322F90E030FD34C0089FF001099F37
:10469000F00D1124DF01A55FBC4F11963C911197DD
:1046A000371327C03C91361324C012963C911297C1
:1046B00031111FC013964D915C9114974C1B5D0BEB
:1046C000483C5105B0F4809109038F70806180935C
:1046D0000903E05FFC4F80818F708061808384E0FC
:1046E00093E00E94D110DF91CF911F910F910C9414
:1046F0000B2301968770BACFDF91CF911F910F9155
:1047000008959F92AF92BF92CF92DF92EF92FF9265
:104710000F931F93CF93DF93CDB7DEB761970FB69B
:10472000F894DEBF0FBECDBF8C0185E0F801DE013D
:104730001D9601900D928A95E1F7F8019081818193
:10474000E28030910403609105034091070350918A
:1047500008034115510531F06F3F31F421E03F3F2F
:1047600019F403C021E001C020E0F22FF1709F2E68
:1047700020FD23C1F801C380D48024E0A22E23E0D1
:10478000B22EF0900603F601E41BF50BFF2009F4AE
:10479000CEC020910903E83CF10508F099C0422FF2
:1047A000407F09F051C0681311C039130FC0FE2CAF
:1047B000E1100CC02F70206120930903C5010E94F5
:1047C000D11080910903F801858337C1CD2831F0DC
:1047D0008F3F31F421E09F3F19F403C021E001C075
:1047E00020E020FD03C021E02E2502C020E030E0C3
:1047F000F22FF170FF2E20FF1DC020913B0340914E
:104800000A0356E0241709F4F6C030E0529FF00185
:10481000539FF00D1124E55FFC4F6181861306C0A4
:104820006081961303C06281E61204C02F5F3F4F80
:104830002770E8CFFE2CEE2009F4FFC08091090319
:1048400081608093090350C0681307C0391305C005
:10485000E11003C0F80125838DC09D878E878D856B
:104860009E850E94F621882369F1EE2059F120915E
:104870000903822F82958F7090E0029774F08091E7
:1048800004039091050398878F831986DB86CA8677
:104890002C87CE0107960E94D11086E0F801A4E093
:1048A000B3E001900D928A95E1F70E9415230DC0A7
:1048B0006817E1F09D878E878D859E850E94F62181
:1048C00081111EC0C8010E94D110FF24F394B5C00D
:1048D000422F407F69F784E093E00E94D11086E088
:1048E000F50111928A95E9F7F12CA7C03913E2CFAF
:1048F000E110E0CFF8012583C8010E94D11057C014
:10490000EE2001F320910903822F82958F7090E0B1
:1049100002971CF280910403909105039A83898386
:104920001B82DD82CC822E83CE010196B4CFE83C7F
:10493000F105E8F5FE2CEE2029F2681327C03913A3
:1049400025C02091090320FD18C0822F82958F7009
:10495000482F50E04115510581F0F80125834F3073
:10496000510541F08F5F982F9295907F822F8F7025
:10497000892B8583C8010E94D11086E0F801A4E04C
:10498000B3E001900D928A95E1F757C09D878E871D
:104990008D859E850E94F62181117FCF809109032C
:1049A000816080930903C8010E94D11046C086E04F
:1049B000F50111928A95E9F740C0EE2009F482CF03
:1049C0009D878E878D859E850E94F621F82E8823EF
:1049D00009F478CF86E0F801A4E0B3E001900D92ED
:1049E0008A95E1F780910403909105030E94EB21E1
:1049F0000E94152322C09D878E878D859E850E94EB
:104A0000EB21292F22952F70223028F49F7039F046
:104A1000811105C00BC0243028F49F7049F4805EDA
:104A2000883020F0C8010E94D1109F2CF92C05C0BD
:104A3000F8019581907F99F7F9CF8F2D61960FB688
:104A4000F894DEBF0FBECDBFDF91CF911F910F91C4
:104A5000FF90EF90DF90CF90BF90AF909F90089520
:104A60001092560386E0EEEFF2E0DF011D928A9588
:104A7000E9F70C9474210895EF92FF921F93CF935E
:104A8000DF93EC0182E6E82E83E0F82E10E08C81C3
:104A900097014091250260912402810F0E945B1AC8
:104AA000115E83E0E80EF11C183F89F70E94BE19E1
:104AB0009A818C8190FF02C08F5F01C081508C83EE
:104AC000DF91CF911F91FF90EF900895CF93DF93E7
:104AD000EC01E2E2F2E0438162818C810E94F11AF2
:104AE0008C818F5F8C83DF91CF910895CF93DF937B
:104AF000EC01EC81F0E0EB5AFA4F4491E2E2F2E093
:104B0000628181810E94F11A8C818F5F8C83DF9199
:104B1000CF9108952091920330919303281739077C
:104B200071F09093930380939203E091EA01F091E6
:104B3000EB01309721F00084F185E02D0994089570
:104B400020919003309191032817390771F09093C9
:104B5000910380939003E091EA01F091EB0130978B
:104B600021F00680F781E02D09940895E091EA0193
:104B7000F091EB01309721F00190F081E02D099444
:104B800080E00895CF93DF93EC0181E0898B9091D1
:104B900056038F81892B8093560390915503888506
:104BA000892B809355030E943721EA81FB81CE0136
:104BB0000696309729F06C897D89DF91CF91099411
:104BC000DF91CF910895EF92FF920F931F93CF93B0
:104BD000DF93FC01228521113AC0EC01E380F480CF
:104BE000F7E5FF1A26E12E9DC0012F9D900D11249F
:104BF000DC01AD5CBD4F1496ED91FC911597875C7F
:104C00009D4F309729F054966D917C915597099559
:104C100086E18E9D80018F9D100D11240D5C1D4F2E
:104C2000F80187810E943021F8018085809590915C
:104C300055038923809355030E94372118821986D2
:104C40001B861E821D821092320210923102DF9169
:104C5000CF911F910F91FF90EF900895EAEAF1E054
:104C600080E090E08830910531F0248127FF1482A4
:104C700001963596F7CF9093F6028093F50208954A
:104C8000CF939091F1029923C9F0882311F0C0E0ED
:104C900003C01092F10212C08091F102C817C8F748
:104CA000EC2FF0E0EE0FFF1FED51FD4F8081918161
:104CB0000E948E1E0E943721CF5FEECFCF910895C4
:104CC000809113028823F9F00E944E20DC01CB0171
:104CD000805A9541AF4FBF4F80930E0290930F02C1
:104CE000A0931002B09311028091120281110BC0A7
:104CF00062E070E085E697E00E94412D892B19F46F
:104D000081E080931202809112020895CF93E82FE0
:104D10002091B7053091B805215B33404091AE0337
:104D2000642F70E0C9010E94EC34481B842FEE23ED
:104D300051F066E00E94E034C82FC150A8F080E234
:104D40000E942C2CFACFA901480F511D4115524049
:104D500018F080E020E030E0280F311D2F543C4F48
:104D60003093B8052093B705CF910895CF93DF9383
:104D7000C7EDD1E060E0CE010E94A4342196C115B8
:104D800084E0D807B9F7DF91CF910895883080F497
:104D90009B01982F8AE0989FB001112469577E4F9C
:104DA0004AE050E0C9010E94803480E090E008951C
:104DB0008FEF9FEF0895883080F49B01982F8AE051
:104DC000989FB0011124695C7E4F4AE050E0C90110
:104DD0000E94803480E090E008958FEF9FEF089567
:104DE0000F931F93CF93DF93843068F5623058F5AB
:104DF000423048F521159CE5390731F4E0912D0248
:104E0000F0912E02EF2BF9F08901282F34E0639FF7
:104E1000C001112438E0239F800D911D1124840FBF
:104E2000911D840F911DEC01C95EDE4F612FCE01F3
:104E30000E94A434602FCE010196DF91CF911F9183
:104E40000F910C94A434DF91CF911F910F9108958D
:104E50000F931F93CF93DF93843018F5623008F5DA
:104E60004230F8F4282F34E0639FC001112438E069
:104E7000239F800D911D1124840F911D840F911D7E
:104E8000EC01C95EDE4FCE010E94903490E0182FF5
:104E90000027CE0101960E9490349801282BC90169
:104EA00002C080E090E0DF91CF911F910F910895B3
:104EB0000F931F93CF93DF93843058F5663048F5F6
:104EC000453038F521159CE5390731F4E0912D0284
:104ED000F0912E02EF2BE9F08901C42FD0E0CC0F26
:104EE000DD1F9AE0699FC00DD11D11249CE3899FAD
:104EF000C00DD11D1124612FCE0187960E94A434CC
:104F0000602FCE018896DF91CF911F910F910C9465
:104F1000A434DF91CF911F910F9108954F925F922A
:104F20006F927F928F929F92AF92BF92CF92DF92B9
:104F3000EF92FF920F931F93CF93DF93CDB7DEB71E
:104F400064970FB6F894DEBF0FBECDBF60902D0200
:104F500070902E0281E090E090932E0280932D02BB
:104F600095E5A92E96E0B92EC12CD12C512C412CBF
:104F7000E12CF12C00E010E046018E0C9F1CF801A2
:104F8000EE0FFF1FE80DF91DEB58F94F25913491F5
:104F9000402F642D852D0E9458270F5F1F4F05302D
:104FA000110569F78AE0E80EF11C4394E6E04E1221
:104FB000E1CF750110E0F7012591349140E0612FB8
:104FC000852D0E94F026F70132962591349141E01B
:104FD000612F852D0E94F026F4E0EF0EF11C1F5F7B
:104FE000123049F788E0A80EB11C5394ECE3CE0EC2
:104FF000D11CF4E05F12BBCF1A8219821C821B8283
:105000001E821D8218861F8288EC90E09A8789870D
:1050100007E311E04AE050E0B801CE0101960E949A
:10502000C834065F1F4F073881E0180799F77E01E3
:10503000EBE0EE0EF11C8AE0F70111928A95E9F798
:105040004AE050E0B801C7010E94C834065F1F4F14
:10505000073DF1E01F07A1F770922E0260922D022A
:1050600064960FB6F894DEBF0FBECDBFDF91CF912F
:105070001F910F91FF90EF90DF90CF90BF90AF9076
:105080009F908F907F906F905F904F9008950F93B7
:105090001F93CF93DF93843008F56630F8F44530E2
:1050A000E8F4C42FD0E0CC0FDD1F2AE0629FC00DD2
:1050B000D11D11243CE3839FC00DD11D1124CE01CD
:1050C00087960E94903490E0182F0027CE01889692
:1050D0000E9490349801282BC90102C080E090E022
:1050E000DF91CF911F910F910895462F20912F02AC
:1050F00030913002232B91F47E3F39F46E3F71F4EE
:1051000080918C0390918D030895843038F476302B
:1051100028F4653018F4672F0C94472880E090E05D
:1051200008958F929F92AF92BF92CF92DF92EF92AB
:10513000FF920F931F93CF93DF93CDB7DEB72A97DC
:105140000FB6F894DEBF0FBECDBF03E312E0E12C33
:10515000F12C8BE6C82E8BE2D82E96E9A92E9BE285
:10516000B92E21E7822E2AE2922EF801D182C08246
:10517000B382A28295828482F58AE48ABE016F5F3F
:105180007F4F8E2D0E94DB26892B29F489859A85F5
:10519000F801938B828BFFEFEF1AFF0A0A5E1F4F15
:1051A00088E0E816F10409F72A960FB6F894DEBFF6
:1051B0000FBECDBFDF91CF911F910F91FF90EF9068
:1051C000DF90CF90BF90AF909F908F900895909177
:1051D000220290FF04C09695981740F003C08111F9
:1051E00005C090E0961710F40C94281C61E00C9414
:1051F000E41B882311F0FA0101C0FB010994CF924E
:10520000DF92FF920F931F93CF93DF93CDB7DEB75B
:1052100067970FB6F894DEBF0FBECDBFF42E4B8B51
:10522000052F5C8B162F6D8B7E8B8F8BCE88DF8846
:10523000611110925503FE013D9686E0DF011D923B
:105240008A95E9F70E945A20209151033091520328
:10525000821B930B8838934140F08091530382FB6B
:10526000992790F981E0892701C080E080FF03C081
:1052700082E00E94AD220E945A2020915703309173
:105280005803821B930B8838934110F00E9425210C
:10529000FD860E871F87D98AC88A86E0FE013D9663
:1052A000DE01179601900D928A95E1F7CE010796DF
:1052B0000E94812381113EC086E0FE013796DE0107
:1052C000119601900D928A95E1F7FF81E8856A8534
:1052D0007B856115710531F0EF3F31F481E0FF3FCF
:1052E00019F403C081E001C080E080FD23C020915B
:1052F0000A0330E0C90101968770992740913B036A
:1053000050E08417950779F1F983EA837D836C83F4
:1053100096E0929FD001939FB00D1124A55FBC4FE2
:10532000FE01319601900D929A95E1F780930A0360
:105330000E940B2316E080913B0390910A0389178A
:10534000F9F0189FC0011124855F9C4F0E948123B2
:105350008823B1F080913B0390E0019687709927F4
:1053600080933B03E8CF0E94302510920A031092ED
:105370003B03E4E0F3E086E0DF011D928A95E9F764
:1053800067960FB6F894DEBF0FBECDBFDF91CF9109
:105390001F910F91FF90DF90CF9008950F931F936F
:1053A000CF93DF93C42FD22FFC0182818823C9F0D1
:1053B0004093F7020E945A2090938F0380938E03AC
:1053C00080E28C0F883008F057C0C77081E001C0C0
:1053D000880FCA95EAF7DF91CF911F910F910C9436
:1053E000DB328091F702481330C080918E03909198
:1053F0008F030E943F20883C910538F510E21D0F75
:10540000CD17B9F080E28C0F883040F4C77081E08E
:1054100001C0880FCA95EAF70E94E532183028F5D6
:1054200081E09D2F977001C0880F9A95EAF70E943E
:10543000DB32802F0E9476331830F0F4D77081E091
:1054400001C0880FDA95EAF70AC080E28C0F883035
:1054500098F4C77081E001C0880FCA95EAF7DF9120
:10546000CF911F910F910C94E532802FDF91CF9156
:105470001F910F910C947633DF91CF911F910F9173
:105480000895CF93DF9300D000D01F92CDB7DEB741
:1054900090938D0380938C03811520E2920748F44A
:1054A0000F900F900F900F900F90DF91CF910C9471
:1054B000781E8EEF89838A831B820E945A20816026
:1054C000782F9D838C8349815A816B818D810E94C5
:1054D000FF280F900F900F900F900F90DF91CF91BA
:1054E00008950F931F93CF93DF938C01EB0162E834
:1054F00073E08C2F0E94DB26892B09F046C08FE3D6
:105500009CE90197F1F700C00000DD27C658DC4F89
:105510008881F80110821882833079F048F4813054
:1055200041F1823091F5809184039091850309C007
:10553000843051F08530E9F028C080918603909145
:1055400087030097B1F01BC0809188039091890375
:105550000097A9F420918203309183038091840302
:10556000909185032115310541F0009741F4C9015F
:1055700006C08091820390918303009731F0DF9100
:10558000CF911F910F910C94412ADF91CF911F91E0
:105590000F910895CF93DF9300D000D01F92CDB725
:1055A000DEB790938D0380938C03811520E29207E0
:1055B00048F40F900F900F900F900F90DF91CF91C4
:1055C0000C948E1E8EEF89838A8381E08B830E94E8
:1055D0005A208160782F9D838C8349815A816B8109
:1055E0008D810E94FF280F900F900F900F900F90C9
:1055F000DF91CF910895AF92BF92CF92DF92EF9259
:10560000FF920F931F93CF93DF93B82EA62EC090D7
:10561000AA03D090AB03E090AC03F090AD0380916F
:105620005A0390915B03A0915C03B0915D03C82A7B
:10563000D92AEA2AFB2ACFE1D0E0D701C6010C2EF5
:1056400004C0B695A795979587950A94D2F780FFE1
:1056500013C04A2D6B2D8C2F0E9428278C0181307E
:10566000910551F00E94CA2A8FE39CE90197F1F756
:1056700000C00000C80111C02197F8F64A2D6B2D1B
:1056800080E00E942827EC010E94CA2A8FE39CE94F
:105690000197F1F700C00000CE010E94412A81E08D
:1056A000DF91CF911F910F91FF90EF90DF90CF90FE
:1056B000BF90AF900895CF93DF93EC010E94CA2A68
:1056C0008FE39CE90197F1F700C00000CE01DF9164
:1056D000CF910C94412A0F931F93CF93DF938C01AA
:1056E000862F62E873E00E94DB26892BD1F4C091FB
:1056F0008203D09183032097A1F0F8018081833049
:1057000039F4CE010E945B2BCE010E945B2B02C0BC
:10571000843038F0CE01DF91CF911F910F910C941E
:105720005B2BDF91CF911F910F9108950F931F93E2
:10573000CF93DF938C01EB0162E873E08C2F0E9422
:10574000DB26892B09F06DC0DD27F80180818130CF
:1057500041F49185911115C09285992391F082E0D1
:1057600010C0823049F4F8018185811107C082851B
:10577000811106C083E005C086E003C085E001C05A
:1057800084E0C658DC4F88838330B1F028F4813040
:1057900071F0823031F045C08430A9F0853079F164
:1057A00040C080918403909185030097A1F580917A
:1057B00082039091830320C0809186039091870398
:1057C0000097E9F028C080918803909189030097A1
:1057D00011F58091820390918303009749F00E9414
:1057E0005B2B8091840390918503009781F013C017
:1057F0008091840390918503009799F00CC080916B
:10580000820390918303009761F00E945B2B80914B
:10581000820390918303DF91CF911F910F910C949C
:10582000CA2ADF91CF911F910F91089560912202B2
:10583000669570E04BE050E083E191E00E942135F5
:10584000892B19F481E0809321020E945A209093C1
:10585000DF018093DE010895CF93DF938A3011F446
:1058600081E003C08D3029F480E0DF91CF910C946A
:105870008626682F8091B7059091B80526E0FC0137
:10588000A1EBB5E001900D922A95E1F7603E30F072
:1058900026E0FC0111922A95E9F70AC0F6E06F9F15
:1058A000B00111246E54774F46E050E00E947734E7
:1058B000C091B705D091B80546E050E0BE0181EB3C
:1058C00095E00E942E35892B49F19E01215B3340E2
:1058D000A90185E0569547958A95E1F781E090E02A
:1058E000BC0102C0660F771F4A95E2F74091AF03F3
:1058F0005091B003462B572B2B5F3F4F65E03695F9
:1059000027956A95E1F702C0880F991F2A95E2F75B
:10591000842B952B9093B0038093AF039E012B5A59
:1059200033404091AE03642F70E0C9010E94EC3413
:10593000481B463010F4240F311D211582E0380732
:1059400010F020E030E02F543C4F3093B805209306
:10595000B705DF91CF910895CF93DF93EC01FE015E
:105960008491882321F00E942C2C2196F8CFDF917E
:10597000CF9108959091AE03899FC00111248115A4
:1059800022E0920714F080E090E08F549C4F9093B7
:10599000B8058093B70508950E94AC2C81E00C9463
:1059A00086260F931F938091AA039091AB03A09139
:1059B000AC03B091AD038C019D0106701127222725
:1059C0003327BC01CD01063011052105310511F445
:1059D000686001C0677F1F910F910C947E22EF9247
:1059E000FF920F931F93CF93DF937C018B010E9453
:1059F000AB30811119C0E70101151105A1F08091AB
:105A0000E80085FD0AC08091E8008E778093E80069
:105A10000E94AB30882381F307C089918093F10005
:105A200001501109E9CF80E0DF91CF911F910F91D3
:105A3000FF90EF900895CF932091A9032430F9F4BB
:105A4000C091E900CF703091EC00232F217030FD20
:105A500020E8C22B22E02093E9002091E80020FFFB
:105A60000BC040E050E060E270E00E94EF2C8091BB
:105A7000E8008E778093E800CF70C093E900CF9163
:105A80000895EF92FF920F931F93CF93DF93EC0152
:105A90007B0164E670E088E70E9498338C01EC0E8D
:105AA000FD1ECE15DF0561F017FD0AC0FE018491D1
:105AB00064E670E00E94EF338C012196892B89F314
:105AC0000E947334C801DF91CF911F910F91FF9015
:105AD000EF9008951F93CF93DF93CDB7DEB7AA97CA
